{
  "contractName": "HomelessPoker",
  "abi": [
    {
      "constant": true,
      "inputs": [],
      "name": "depositPool",
      "outputs": [
        {
          "name": "",
          "type": "uint256"
        }
      ],
      "payable": false,
      "stateMutability": "view",
      "type": "function",
      "signature": "0x2a343709"
    },
    {
      "constant": true,
      "inputs": [],
      "name": "prizePool",
      "outputs": [
        {
          "name": "",
          "type": "uint256"
        }
      ],
      "payable": false,
      "stateMutability": "view",
      "type": "function",
      "signature": "0x719ce73e"
    },
    {
      "constant": true,
      "inputs": [],
      "name": "votingHasStarted",
      "outputs": [
        {
          "name": "",
          "type": "bool"
        }
      ],
      "payable": false,
      "stateMutability": "view",
      "type": "function",
      "signature": "0x8faf9312"
    },
    {
      "constant": true,
      "inputs": [],
      "name": "_deposit",
      "outputs": [
        {
          "name": "",
          "type": "uint256"
        }
      ],
      "payable": false,
      "stateMutability": "view",
      "type": "function",
      "signature": "0xabb721ce"
    },
    {
      "constant": true,
      "inputs": [],
      "name": "_buyIn",
      "outputs": [
        {
          "name": "",
          "type": "uint256"
        }
      ],
      "payable": false,
      "stateMutability": "view",
      "type": "function",
      "signature": "0xc2ebba00"
    },
    {
      "anonymous": false,
      "inputs": [
        {
          "indexed": false,
          "name": "sender",
          "type": "address"
        },
        {
          "indexed": false,
          "name": "amount",
          "type": "uint256"
        },
        {
          "indexed": false,
          "name": "balance",
          "type": "uint256"
        }
      ],
      "name": "LogDeposit",
      "type": "event",
      "signature": "0x9dbb0e7dda3e09710ce75b801addc87cf9d9c6c581641b3275fca409ad086c62"
    },
    {
      "anonymous": false,
      "inputs": [
        {
          "indexed": false,
          "name": "deposit",
          "type": "uint256"
        },
        {
          "indexed": false,
          "name": "depositPool",
          "type": "uint256"
        },
        {
          "indexed": false,
          "name": "contractBalance",
          "type": "uint256"
        }
      ],
      "name": "LogRefund",
      "type": "event",
      "signature": "0x1ee75f95deb9227f1820c80490bf2d709a3ede43b874b8da80317534e9181977"
    },
    {
      "anonymous": false,
      "inputs": [
        {
          "indexed": false,
          "name": "_buyIn",
          "type": "uint256"
        },
        {
          "indexed": false,
          "name": "deposit",
          "type": "uint256"
        }
      ],
      "name": "LogDeposit2",
      "type": "event",
      "signature": "0x50f573b23d017a63626fae53c33bff538b73ae9ad334ab8580678ee42f19384d"
    },
    {
      "anonymous": false,
      "inputs": [
        {
          "indexed": false,
          "name": "prize",
          "type": "uint256"
        },
        {
          "indexed": false,
          "name": "prizePool",
          "type": "uint256"
        }
      ],
      "name": "LogHandout",
      "type": "event",
      "signature": "0xbbc656893463c2eae16d5d39833a6800dcb31c98900357ecb9e6405a56080d65"
    },
    {
      "anonymous": false,
      "inputs": [
        {
          "indexed": false,
          "name": "prizePool",
          "type": "uint256"
        },
        {
          "indexed": false,
          "name": "hasEverybodyVoted",
          "type": "bool"
        }
      ],
      "name": "LogVoting",
      "type": "event",
      "signature": "0x2722e9ce1091f21f8c65dd1e09cd9f5c2538fde064378931cb727be07c329026"
    },
    {
      "anonymous": false,
      "inputs": [
        {
          "indexed": false,
          "name": "prize",
          "type": "uint256"
        }
      ],
      "name": "LogPrize",
      "type": "event",
      "signature": "0x527a41bf1f5e08140c90c3b61b9b00d200676a82a288208f949c6d03d270f43c"
    },
    {
      "anonymous": false,
      "inputs": [
        {
          "indexed": false,
          "name": "prizePool",
          "type": "uint256"
        },
        {
          "indexed": false,
          "name": "i",
          "type": "uint256"
        },
        {
          "indexed": false,
          "name": "prizeMath",
          "type": "uint256"
        }
      ],
      "name": "LogCalc",
      "type": "event",
      "signature": "0xe7c828db88b564f39e7c3e7633730f2db091427b7391d5c7fc075e33b69089c3"
    },
    {
      "anonymous": false,
      "inputs": [
        {
          "indexed": false,
          "name": "sender",
          "type": "address"
        },
        {
          "indexed": false,
          "name": "accountBalance",
          "type": "uint256"
        }
      ],
      "name": "LogSelfDestruct",
      "type": "event",
      "signature": "0x215be423a2afeeee1f3f4d3cc730708809a96e17103a81f16896c0722bd20635"
    },
    {
      "constant": false,
      "inputs": [],
      "name": "deposit",
      "outputs": [],
      "payable": true,
      "stateMutability": "payable",
      "type": "function",
      "signature": "0xd0e30db0"
    },
    {
      "constant": true,
      "inputs": [],
      "name": "getPlayerCount",
      "outputs": [
        {
          "name": "",
          "type": "int256"
        }
      ],
      "payable": false,
      "stateMutability": "view",
      "type": "function",
      "signature": "0xc2e52206"
    },
    {
      "constant": true,
      "inputs": [],
      "name": "getPlayersVotedCount",
      "outputs": [
        {
          "name": "",
          "type": "int256"
        }
      ],
      "payable": false,
      "stateMutability": "view",
      "type": "function",
      "signature": "0x20899ab3"
    },
    {
      "constant": false,
      "inputs": [
        {
          "name": "playerBallot",
          "type": "address[]"
        }
      ],
      "name": "vote",
      "outputs": [],
      "payable": true,
      "stateMutability": "payable",
      "type": "function",
      "signature": "0xed081329"
    },
    {
      "constant": true,
      "inputs": [],
      "name": "votingEnded",
      "outputs": [
        {
          "name": "",
          "type": "bool"
        }
      ],
      "payable": false,
      "stateMutability": "view",
      "type": "function",
      "signature": "0x9d5a0529"
    },
    {
      "constant": true,
      "inputs": [
        {
          "name": "number",
          "type": "uint256"
        },
        {
          "name": "percent",
          "type": "uint256"
        }
      ],
      "name": "getPercentage",
      "outputs": [
        {
          "name": "",
          "type": "uint256"
        }
      ],
      "payable": false,
      "stateMutability": "pure",
      "type": "function",
      "signature": "0xf74f3655"
    },
    {
      "constant": true,
      "inputs": [
        {
          "name": "ballotOne",
          "type": "address[]"
        },
        {
          "name": "ballotTwo",
          "type": "address[]"
        }
      ],
      "name": "isEqual",
      "outputs": [
        {
          "name": "",
          "type": "bool"
        }
      ],
      "payable": false,
      "stateMutability": "pure",
      "type": "function",
      "signature": "0x00775c1a"
    },
    {
      "constant": true,
      "inputs": [],
      "name": "getContractBalance",
      "outputs": [
        {
          "name": "",
          "type": "uint256"
        }
      ],
      "payable": false,
      "stateMutability": "view",
      "type": "function",
      "signature": "0x6f9fb98a"
    },
    {
      "constant": true,
      "inputs": [
        {
          "name": "place",
          "type": "uint256"
        },
        {
          "name": "potiumSize",
          "type": "uint256"
        },
        {
          "name": "pool",
          "type": "uint256"
        }
      ],
      "name": "getPrizeCalculation",
      "outputs": [
        {
          "name": "",
          "type": "uint256"
        }
      ],
      "payable": false,
      "stateMutability": "pure",
      "type": "function",
      "signature": "0x6c0481b5"
    },
    {
      "constant": true,
      "inputs": [],
      "name": "getPotiumSize",
      "outputs": [
        {
          "name": "",
          "type": "uint256"
        }
      ],
      "payable": false,
      "stateMutability": "view",
      "type": "function",
      "signature": "0x08d872ed"
    }
  ],
  "bytecode": "0x608060405234801561001057600080fd5b50611738806100206000396000f3fe608060405260043610610104576000357c0100000000000000000000000000000000000000000000000000000000900480638faf9312116100a7578063c2ebba0011610076578063c2ebba0014610468578063d0e30db014610493578063ed0813291461049d578063f74f36551461055557610104565b80638faf9312146103b45780639d5a0529146103e3578063abb721ce14610412578063c2e522061461043d57610104565b80632a343709116100e35780632a343709146102d05780636c0481b5146102fb5780636f9fb98a1461035e578063719ce73e1461038957610104565b8062775c1a1461010957806308d872ed1461027a57806320899ab3146102a5575b600080fd5b34801561011557600080fd5b506102606004803603604081101561012c57600080fd5b810190808035906020019064010000000081111561014957600080fd5b82018360208201111561015b57600080fd5b8035906020019184602083028401116401000000008311171561017d57600080fd5b919080806020026020016040519081016040528093929190818152602001838360200280828437600081840152601f19601f820116905080830192505050505050509192919290803590602001906401000000008111156101dd57600080fd5b8201836020820111156101ef57600080fd5b8035906020019184602083028401116401000000008311171561021157600080fd5b919080806020026020016040519081016040528093929190818152602001838360200280828437600081840152601f19601f8201169050808301925050505050505091929192905050506105ae565b604051808215151515815260200191505060405180910390f35b34801561028657600080fd5b5061028f610661565b6040518082815260200191505060405180910390f35b3480156102b157600080fd5b506102ba6106e9565b6040518082815260200191505060405180910390f35b3480156102dc57600080fd5b506102e56106f6565b6040518082815260200191505060405180910390f35b34801561030757600080fd5b506103486004803603606081101561031e57600080fd5b810190808035906020019092919080359060200190929190803590602001909291905050506106fc565b6040518082815260200191505060405180910390f35b34801561036a57600080fd5b5061037361075e565b6040518082815260200191505060405180910390f35b34801561039557600080fd5b5061039e61077d565b6040518082815260200191505060405180910390f35b3480156103c057600080fd5b506103c9610783565b604051808215151515815260200191505060405180910390f35b3480156103ef57600080fd5b506103f8610796565b604051808215151515815260200191505060405180910390f35b34801561041e57600080fd5b506104276107b3565b6040518082815260200191505060405180910390f35b34801561044957600080fd5b506104526107b9565b6040518082815260200191505060405180910390f35b34801561047457600080fd5b5061047d6107c6565b6040518082815260200191505060405180910390f35b61049b6107cc565b005b610553600480360360208110156104b357600080fd5b81019080803590602001906401000000008111156104d057600080fd5b8201836020820111156104e257600080fd5b8035906020019184602083028401116401000000008311171561050457600080fd5b919080806020026020016040519081016040528093929190818152602001838360200280828437600081840152601f19601f820116905080830192505050505050509192919290505050610ab6565b005b34801561056157600080fd5b506105986004803603604081101561057857600080fd5b810190808035906020019092919080359060200190929190505050610e77565b6040518082815260200191505060405180910390f35b60008160405160200180828051906020019060200280838360005b838110156105e45780820151818401526020810190506105c9565b50505050905001915050604051602081830303815290604052805190602001208360405160200180828051906020019060200280838360005b8381101561063857808201518184015260208101905061061d565b505050509050019150506040516020818303038152906040528051906020012014905092915050565b600060058080549050101561067957600190506106e6565b600061069360058080549050610ea790919063ffffffff16565b14156106b8576106b160058080549050610ecc90919063ffffffff16565b90506106e6565b6106e360016106d560058080549050610ecc90919063ffffffff16565b610ef690919063ffffffff16565b90505b90565b6000600680549050905090565b60035481565b60008060008090505b84811015610722578060020a820191508080600101915050610705565b5060006107508261073c8888610f1790919063ffffffff16565b869060020a02610ecc90919063ffffffff16565b905080925050509392505050565b60003073ffffffffffffffffffffffffffffffffffffffff1631905090565b60025481565b600460009054906101000a900460ff1681565b60006107a0610f39565b6107ab5760006107ae565b60015b905090565b60015481565b6000600580549050905090565b60005481565b60001515600460009054906101000a900460ff16151514151561083a576040517f08c379a00000000000000000000000000000000000000000000000000000000081526004018080602001828103825260268152602001806116a16026913960400191505060405180910390fd5b600760003373ffffffffffffffffffffffffffffffffffffffff1673ffffffffffffffffffffffffffffffffffffffff16815260200190815260200160002060009054906101000a900460ff161515156108fc576040517f08c379a000000000000000000000000000000000000000000000000000000000815260040180806020018281038252601f8152602001807f4120706c617965722063616e206f6e6c79206465706f736974206f6e63652e0081525060200191505060405180910390fd5b600060058054905014156109185761091334610f4d565b610979565b6001546000540134141515610978576040517f08c379a000000000000000000000000000000000000000000000000000000000815260040180806020018281038252603481526020018061166d6034913960400191505060405180910390fd5b5b610990600154600354610ef690919063ffffffff16565b6003819055506109ad600054600254610ef690919063ffffffff16565b6002819055507f50f573b23d017a63626fae53c33bff538b73ae9ad334ab8580678ee42f19384d600054600154604051808381526020018281526020019250505060405180910390a160053390806001815401808255809150509060018203906000526020600020016000909192909190916101000a81548173ffffffffffffffffffffffffffffffffffffffff021916908373ffffffffffffffffffffffffffffffffffffffff160217905550506001600760003373ffffffffffffffffffffffffffffffffffffffff1673ffffffffffffffffffffffffffffffffffffffff16815260200190815260200160002060006101000a81548160ff021916908315150217905550565b6001600460006101000a81548160ff0219169083151502179055507f2722e9ce1091f21f8c65dd1e09cd9f5c2538fde064378931cb727be07c329026600254610afd610f39565b60405180838152602001821515151581526020019250505060405180910390a160011515600760003373ffffffffffffffffffffffffffffffffffffffff1673ffffffffffffffffffffffffffffffffffffffff16815260200190815260200160002060009054906101000a900460ff161515141515610be5576040517f08c379a000000000000000000000000000000000000000000000000000000000815260040180806020018281038252601e8152602001807f566f7465722073686f756c642062652070617274696369706174696e672e000081525060200191505060405180910390fd5b6001600860003373ffffffffffffffffffffffffffffffffffffffff1673ffffffffffffffffffffffffffffffffffffffff16815260200190815260200160002080549050101515610c9f576040517f08c379a000000000000000000000000000000000000000000000000000000000815260040180806020018281038252601b8152602001807f4120706c617965722063616e206f6e6c7920766f7465206f6e6365000000000081525060200191505060405180910390fd5b610ca7610661565b8151141515610d01576040517f08c379a00000000000000000000000000000000000000000000000000000000081526004018080602001828103825260468152602001806116c76046913960600191505060405180910390fd5b80600860003373ffffffffffffffffffffffffffffffffffffffff1673ffffffffffffffffffffffffffffffffffffffff1681526020019081526020016000209080519060200190610d5492919061159f565b5060063390806001815401808255809150509060018203906000526020600020016000909192909190916101000a81548173ffffffffffffffffffffffffffffffffffffffff021916908373ffffffffffffffffffffffffffffffffffffffff16021790555050610dc433610f80565b610dcc610796565b15610e7457610dd961103b565b7f215be423a2afeeee1f3f4d3cc730708809a96e17103a81f16896c0722bd20635333073ffffffffffffffffffffffffffffffffffffffff1631604051808373ffffffffffffffffffffffffffffffffffffffff1673ffffffffffffffffffffffffffffffffffffffff1681526020018281526020019250505060405180910390a13373ffffffffffffffffffffffffffffffffffffffff16ff5b50565b6000610e9f6064610e9184866112cd90919063ffffffff16565b610ecc90919063ffffffff16565b905092915050565b6000808214151515610eb857600080fd5b8183811515610ec357fe5b06905092915050565b60008082111515610edc57600080fd5b60008284811515610ee957fe5b0490508091505092915050565b6000808284019050838110151515610f0d57600080fd5b8091505092915050565b6000828211151515610f2857600080fd5b600082840390508091505092915050565b600060068054905060058054905014905090565b6000610f5a826019610e77565b905080600181905550610f768183610f1790919063ffffffff16565b6000819055505050565b610f97600154600354610f1790919063ffffffff16565b6003819055508073ffffffffffffffffffffffffffffffffffffffff166108fc6001549081150290604051600060405180830381858888f19350505050158015610fe5573d6000803e3d6000fd5b507f1ee75f95deb9227f1820c80490bf2d709a3ede43b874b8da80317534e918197760015460035461101561075e565b60405180848152602001838152602001828152602001935050505060405180910390a150565b606061104561130b565b9050600580549050611055610661565b1015156110ca576040517f08c379a00000000000000000000000000000000000000000000000000000000081526004018080602001828103825260048152602001807f544f444f0000000000000000000000000000000000000000000000000000000081525060200191505060405180910390fd5b60006110d4610661565b90505b60008111156112c95760006110f6600183610f1790919063ffffffff16565b90506000838281518110151561110857fe5b906020019060200201519050600760008273ffffffffffffffffffffffffffffffffffffffff1673ffffffffffffffffffffffffffffffffffffffff16815260200190815260200160002060009054906101000a900460ff1615156111d5576040517f08c379a000000000000000000000000000000000000000000000000000000000815260040180806020018281038252601c8152602001807f506c617965722068617320746f20626520726567697374657265642e0000000081525060200191505060405180910390fd5b60006111eb846111e3610661565b6002546106fc565b905060018414156112155761121260035461120461075e565b610ef690919063ffffffff16565b90505b7fbbc656893463c2eae16d5d39833a6800dcb31c98900357ecb9e6405a56080d6581600254604051808381526020018281526020019250505060405180910390a161126b81600254610f1790919063ffffffff16565b6002819055508173ffffffffffffffffffffffffffffffffffffffff166108fc829081150290604051600060405180830381858888f193505050501580156112b7573d6000803e3d6000fd5b505050508080600190039150506110d7565b5050565b6000808314156112e05760009050611305565b600082840290508284828115156112f357fe5b0414151561130057600080fd5b809150505b92915050565b60606000809050606080606060008090505b6006805490508160ff1610156115945760008090506008600060068460ff1681548110151561134857fe5b9060005260206000200160009054906101000a900473ffffffffffffffffffffffffffffffffffffffff1673ffffffffffffffffffffffffffffffffffffffff1673ffffffffffffffffffffffffffffffffffffffff16815260200190815260200160002080548060200260200160405190810160405280929190818152602001828054801561142d57602002820191906000526020600020905b8160009054906101000a900473ffffffffffffffffffffffffffffffffffffffff1673ffffffffffffffffffffffffffffffffffffffff16815260200190600101908083116113e3575b505050505093506000600190505b6006805490508160ff161015611570576008600060068360ff1681548110151561146157fe5b9060005260206000200160009054906101000a900473ffffffffffffffffffffffffffffffffffffffff1673ffffffffffffffffffffffffffffffffffffffff1673ffffffffffffffffffffffffffffffffffffffff16815260200190815260200160002080548060200260200160405190810160405280929190818152602001828054801561154657602002820191906000526020600020905b8160009054906101000a900473ffffffffffffffffffffffffffffffffffffffff1673ffffffffffffffffffffffffffffffffffffffff16815260200190600101908083116114fc575b5050505050935061155785856105ae565b15611563576001820191505b808060010191505061143b565b508560ff168160ff161115611586578095508394505b50808060010191505061131d565b508294505050505090565b828054828255906000526020600020908101928215611618579160200282015b828111156116175782518260006101000a81548173ffffffffffffffffffffffffffffffffffffffff021916908373ffffffffffffffffffffffffffffffffffffffff160217905550916020019190600101906115bf565b5b5090506116259190611629565b5090565b61166991905b8082111561166557600081816101000a81549073ffffffffffffffffffffffffffffffffffffffff02191690555060010161162f565b5090565b9056fe56616c75652073656e742068617320746f206d6174636820746865206275792d696e202b206465706f73697420616d6f756e742e566f74696e6720737461727465642c20726567697374726174696f6e2068617320656e64656454686520616d6f756e74206f662061646472657373657320696e20706c617965722062616c6c6f742068617320746f206d617463682074686520706f7469756d2073697a652ea165627a7a7230582030baf4b3070532c112d1a63445c2665f3fd37ed4779efc771e1840ef2150fce00029",
  "source": "pragma solidity ^0.5.4;\n\n\nimport \"../node_modules/openzeppelin-solidity/contracts/math/SafeMath.sol\";\n\n\ncontract HomelessPoker {\n    using SafeMath for uint;\n    uint public _buyIn;\n    uint public _deposit;\n    uint public prizePool;\n    uint public depositPool;\n    bool public votingHasStarted;\n    address[] private playersRegistered;\n    address payable[] private playersVoted;\n\n    mapping(address => bool) private isRegistered;\n    mapping(address => address payable[]) private ballot;\n    mapping(address => uint) private count;\n\n    event LogDeposit (address sender, uint amount, uint balance);\n    event LogRefund (uint deposit, uint depositPool, uint contractBalance);\n    event LogDeposit2 (uint _buyIn, uint deposit);\n    event LogHandout (uint prize, uint prizePool);\n    event LogVoting (uint prizePool, bool hasEverybodyVoted);\n    event LogPrize (uint prize);\n    event LogCalc (uint prizePool, uint i, uint prizeMath);\n    event LogSelfDestruct (address sender, uint accountBalance);\n\n    function deposit() public payable {\n        require(votingHasStarted == false, \"Voting started, registration has ended\");\n        \n        // is this working? \n        require(!isRegistered[msg.sender], \"A player can only deposit once.\");\n\n        /* First depositee sets the buy-in amount */\n        if (playersRegistered.length == 0) {\n            setBuyInAndDeposit(msg.value);\n        }\n        else {\n            require(msg.value == (_buyIn + _deposit), \"Value sent has to match the buy-in + deposit amount.\");\n        }\n\n        depositPool = depositPool.add(_deposit);\n        prizePool = prizePool.add(_buyIn);\n        emit LogDeposit2(_buyIn, _deposit);\n        playersRegistered.push(msg.sender);\n        isRegistered[msg.sender] = true;\n\n        //emit LogDeposit(msg.sender, msg.value, msg.sender.balance);\n    }\n    function getPlayerCount() public view returns (int) {\n        return int(playersRegistered.length);\n    }\n\n    function getPlayersVotedCount() public view returns (int) {\n        return int(playersVoted.length);\n    }\n\n    // First iteration will trust that every player votes correctly:\n    // player sends in a listOfWinners array arranged from first to last place\n    function vote(address payable[] memory playerBallot) public payable {\n        votingHasStarted = true;\n        emit LogVoting(prizePool, allPlayersHaveVoted());\n        require(isRegistered[msg.sender] == true, \"Voter should be participating.\");\n        require(ballot[msg.sender].length < 1, \"A player can only vote once\");\n        require(\n            playerBallot.length == getPotiumSize(),\n            \"The amount of addresses in player ballot has to match the potium size.\"\n        );\n\n        // mapping a players ballot (kjörseðill) to his address\n        ballot[msg.sender] = playerBallot;\n    \n        // maintain an iterable record for who has voted\n        playersVoted.push(msg.sender);\n\n        refundDeposit(msg.sender);\n\n        if (votingEnded()) {\n            handOutReward();\n            // Is this ideal?\n            // The last user to vote has to pay gas for getWinningBallot which is gas costly\n            // The memory arrays should free up some gas on selfdestruct to pay the user back.\n            emit LogSelfDestruct(msg.sender, address(this).balance);\n            selfdestruct(msg.sender);\n        }\n    }\n\n    function votingEnded() public view returns (bool) {\n        return allPlayersHaveVoted() ? true : false;\n    }\n\n    function getPercentage(uint number, uint percent) public pure returns (uint) {\n        return number.mul(percent).div(100);\n    }\n\n    // when majority has voted, then pay the deposit back\n    // function majorityHasVoted() public view returns (bool) {\n    //     // uint() floors integers, add one to get ceiling.\n    //     uint majority = getPercentage(playersRegistered.length, 50).add(1);\n    //     return playersVoted.length >= majority;\n    // }\n    //\n    function isEqual(address payable[] memory ballotOne, address payable[] memory ballotTwo) \n    public pure returns (bool) {\n        return keccak256(abi.encodePacked(ballotOne)) == keccak256(abi.encodePacked(ballotTwo));\n    }\n\n    function getContractBalance() public view returns (uint) {\n        return address(this).balance;\n    }\n\n    // inaccurate breakdown because a lack of decimals in solidity, \n    // prices are not always distributed 100%, needs refactoring\n    // Solution ? : use Finney as a unit.\n    function getPrizeCalculation(uint place, uint potiumSize, uint pool) public pure returns (uint) {\n        uint prizeMath;\n\n        for (uint exp = 0; exp < potiumSize; exp++) {\n            prizeMath += 2**exp;\n        }\n        // x << y == x * 2**y\n        uint prize = (pool << potiumSize.sub(place)).div(prizeMath);\n\n        return prize;\n    }\n\n    /* 20% of all players get rewards */\n    function getPotiumSize() public view returns (uint) {\n        if (playersRegistered.length < 5) {\n            return 1;\n        }\n        else if (playersRegistered.length.mod(5) == 0) {\n            return uint(playersRegistered.length.div(5));\n        }\n        return uint(playersRegistered.length.div(5)).add(1);\n    }\n\n    // this function takes tons of gas, the last player to vote\n    // uses almost 300.000 additional gas\n    function getWinningBallot() private view returns (address payable[] memory) {\n\n        uint8 max = 0;\n        address payable[] memory winningBallot;\n        address payable[] memory thisBallot;\n        address payable[] memory restOfBallots;\n\n        for(uint8 i = 0; i < playersVoted.length; i++ ) {\n            uint8 counter = 0;\n            thisBallot = ballot[playersVoted[i]];\n\n            for(uint8 j = 1; j < playersVoted.length; j++) {\n                restOfBallots = ballot[playersVoted[j]];\n                if (isEqual(thisBallot, restOfBallots)) {\n                    counter += 1;\n                }\n            }\n            if(counter > max) {\n                max = counter;\n                winningBallot = thisBallot;\n            }\n        }\n        return winningBallot;\n    }\n\n    function handOutReward() private {\n        address payable[] memory winningBallot = getWinningBallot();\n        require(getPotiumSize() < playersRegistered.length, \"TODO\");\n        for(uint place = getPotiumSize(); place > 0; place--) {\n            uint slot = place.sub(1);\n            address payable playerAccount = winningBallot[slot];\n\n            require(isRegistered[playerAccount], \"Player has to be registered.\");\n            uint prize = getPrizeCalculation(place, getPotiumSize(), prizePool);\n\n            // The top player gets the \"dust\" + depositPool if someone didn't vote\n            if (place == 1) {\n                prize = getContractBalance().add(depositPool);\n            }\n\n            emit LogHandout(prize, prizePool);\n            prizePool = prizePool.sub(prize);\n            playerAccount.transfer(prize);\n        }\n    }\n\n    function refundDeposit(address payable sender) private {\n        depositPool = depositPool.sub(_deposit);\n        sender.transfer(_deposit);\n        emit LogRefund(_deposit, depositPool, getContractBalance());\n    }\n\n    function setBuyInAndDeposit(uint amount) private {\n        uint depositAmount = getPercentage(amount, 25);\n\n        _deposit = depositAmount;\n        _buyIn = amount.sub(depositAmount);\n    }\n\n    function transferDepositBack() private {\n        for(uint i = 0; i < playersVoted.length; i++ ) {\n            depositPool = depositPool.sub(_deposit);\n            playersVoted[i].transfer(_deposit);\n        }\n    }\n\n    function allPlayersHaveVoted() private view returns (bool) {\n        return (playersRegistered.length == playersVoted.length);\n    }\n\n}\n\n",
  "sourcePath": "/Users/einaralex/Development/Projects/Homeless-Poker/contracts/HomelessPoker.sol",
  "compiler": {
    "name": "solc",
    "version": "0.5.4+commit.9549d8ff.Emscripten.clang"
  },
  "schemaVersion": "3.0.2",
  "updatedAt": "2019-03-10T18:16:18.845Z",
  "devdoc": {
    "methods": {}
  },
  "userdoc": {
    "methods": {}
  }
}