{
  "contractName": "HomelessPoker",
  "abi": [
    {
      "constant": true,
      "inputs": [],
      "name": "buyIn",
      "outputs": [
        {
          "name": "",
          "type": "uint256"
        }
      ],
      "payable": false,
      "stateMutability": "view",
      "type": "function",
      "signature": "0x53aab434"
    },
    {
      "constant": true,
      "inputs": [
        {
          "name": "",
          "type": "uint256"
        }
      ],
      "name": "playersRegistered",
      "outputs": [
        {
          "name": "",
          "type": "address"
        }
      ],
      "payable": false,
      "stateMutability": "view",
      "type": "function",
      "signature": "0x5efdeb57"
    },
    {
      "constant": true,
      "inputs": [],
      "name": "prizePool",
      "outputs": [
        {
          "name": "",
          "type": "uint256"
        }
      ],
      "payable": false,
      "stateMutability": "view",
      "type": "function",
      "signature": "0x719ce73e"
    },
    {
      "constant": true,
      "inputs": [],
      "name": "pledge",
      "outputs": [
        {
          "name": "",
          "type": "uint256"
        }
      ],
      "payable": false,
      "stateMutability": "view",
      "type": "function",
      "signature": "0x88ffe867"
    },
    {
      "constant": true,
      "inputs": [],
      "name": "votingHasStarted",
      "outputs": [
        {
          "name": "",
          "type": "bool"
        }
      ],
      "payable": false,
      "stateMutability": "view",
      "type": "function",
      "signature": "0x8faf9312"
    },
    {
      "constant": true,
      "inputs": [],
      "name": "lastVote",
      "outputs": [
        {
          "name": "",
          "type": "uint256"
        }
      ],
      "payable": false,
      "stateMutability": "view",
      "type": "function",
      "signature": "0xb3509e8d"
    },
    {
      "constant": true,
      "inputs": [],
      "name": "pledgePool",
      "outputs": [
        {
          "name": "",
          "type": "uint256"
        }
      ],
      "payable": false,
      "stateMutability": "view",
      "type": "function",
      "signature": "0xde909560"
    },
    {
      "anonymous": false,
      "inputs": [
        {
          "indexed": false,
          "name": "sender",
          "type": "address"
        },
        {
          "indexed": false,
          "name": "amount",
          "type": "uint256"
        },
        {
          "indexed": false,
          "name": "balance",
          "type": "uint256"
        }
      ],
      "name": "LogDeposit",
      "type": "event",
      "signature": "0x9dbb0e7dda3e09710ce75b801addc87cf9d9c6c581641b3275fca409ad086c62"
    },
    {
      "anonymous": false,
      "inputs": [
        {
          "indexed": false,
          "name": "deposit",
          "type": "uint256"
        },
        {
          "indexed": false,
          "name": "pledgePool",
          "type": "uint256"
        },
        {
          "indexed": false,
          "name": "contractBalance",
          "type": "uint256"
        }
      ],
      "name": "LogRefund",
      "type": "event",
      "signature": "0x1ee75f95deb9227f1820c80490bf2d709a3ede43b874b8da80317534e9181977"
    },
    {
      "anonymous": false,
      "inputs": [
        {
          "indexed": false,
          "name": "buyIn",
          "type": "uint256"
        },
        {
          "indexed": false,
          "name": "deposit",
          "type": "uint256"
        }
      ],
      "name": "LogDeposit2",
      "type": "event",
      "signature": "0x50f573b23d017a63626fae53c33bff538b73ae9ad334ab8580678ee42f19384d"
    },
    {
      "anonymous": false,
      "inputs": [
        {
          "indexed": false,
          "name": "prize",
          "type": "uint256"
        },
        {
          "indexed": false,
          "name": "prizePool",
          "type": "uint256"
        }
      ],
      "name": "LogHandout",
      "type": "event",
      "signature": "0xbbc656893463c2eae16d5d39833a6800dcb31c98900357ecb9e6405a56080d65"
    },
    {
      "anonymous": false,
      "inputs": [
        {
          "indexed": false,
          "name": "prizePool",
          "type": "uint256"
        },
        {
          "indexed": false,
          "name": "hasEverybodyVoted",
          "type": "bool"
        }
      ],
      "name": "LogVoting",
      "type": "event",
      "signature": "0x2722e9ce1091f21f8c65dd1e09cd9f5c2538fde064378931cb727be07c329026"
    },
    {
      "anonymous": false,
      "inputs": [
        {
          "indexed": false,
          "name": "prize",
          "type": "uint256"
        }
      ],
      "name": "LogPrize",
      "type": "event",
      "signature": "0x527a41bf1f5e08140c90c3b61b9b00d200676a82a288208f949c6d03d270f43c"
    },
    {
      "anonymous": false,
      "inputs": [
        {
          "indexed": false,
          "name": "prizePool",
          "type": "uint256"
        },
        {
          "indexed": false,
          "name": "i",
          "type": "uint256"
        },
        {
          "indexed": false,
          "name": "prizeMath",
          "type": "uint256"
        }
      ],
      "name": "LogCalc",
      "type": "event",
      "signature": "0xe7c828db88b564f39e7c3e7633730f2db091427b7391d5c7fc075e33b69089c3"
    },
    {
      "anonymous": false,
      "inputs": [
        {
          "indexed": false,
          "name": "sender",
          "type": "address"
        },
        {
          "indexed": false,
          "name": "accountBalance",
          "type": "uint256"
        }
      ],
      "name": "LogSelfDestruct",
      "type": "event",
      "signature": "0x215be423a2afeeee1f3f4d3cc730708809a96e17103a81f16896c0722bd20635"
    },
    {
      "constant": false,
      "inputs": [],
      "name": "deposit",
      "outputs": [],
      "payable": true,
      "stateMutability": "payable",
      "type": "function",
      "signature": "0xd0e30db0"
    },
    {
      "constant": true,
      "inputs": [],
      "name": "getPlayerCount",
      "outputs": [
        {
          "name": "",
          "type": "int256"
        }
      ],
      "payable": false,
      "stateMutability": "view",
      "type": "function",
      "signature": "0xc2e52206"
    },
    {
      "constant": true,
      "inputs": [],
      "name": "getPlayersVotedCount",
      "outputs": [
        {
          "name": "",
          "type": "int256"
        }
      ],
      "payable": false,
      "stateMutability": "view",
      "type": "function",
      "signature": "0x20899ab3"
    },
    {
      "constant": false,
      "inputs": [
        {
          "name": "playerBallot",
          "type": "address[]"
        }
      ],
      "name": "vote",
      "outputs": [],
      "payable": true,
      "stateMutability": "payable",
      "type": "function",
      "signature": "0xed081329"
    },
    {
      "constant": false,
      "inputs": [],
      "name": "trigger",
      "outputs": [],
      "payable": false,
      "stateMutability": "nonpayable",
      "type": "function",
      "signature": "0x7fec8d38"
    },
    {
      "constant": true,
      "inputs": [],
      "name": "votingEnded",
      "outputs": [
        {
          "name": "",
          "type": "bool"
        }
      ],
      "payable": false,
      "stateMutability": "view",
      "type": "function",
      "signature": "0x9d5a0529"
    },
    {
      "constant": true,
      "inputs": [
        {
          "name": "number",
          "type": "uint256"
        },
        {
          "name": "percent",
          "type": "uint256"
        }
      ],
      "name": "getPercentage",
      "outputs": [
        {
          "name": "",
          "type": "uint256"
        }
      ],
      "payable": false,
      "stateMutability": "pure",
      "type": "function",
      "signature": "0xf74f3655"
    },
    {
      "constant": true,
      "inputs": [
        {
          "name": "ballotOne",
          "type": "address[]"
        },
        {
          "name": "ballotTwo",
          "type": "address[]"
        }
      ],
      "name": "isEqual",
      "outputs": [
        {
          "name": "",
          "type": "bool"
        }
      ],
      "payable": false,
      "stateMutability": "pure",
      "type": "function",
      "signature": "0x00775c1a"
    },
    {
      "constant": true,
      "inputs": [],
      "name": "getContractBalance",
      "outputs": [
        {
          "name": "",
          "type": "uint256"
        }
      ],
      "payable": false,
      "stateMutability": "view",
      "type": "function",
      "signature": "0x6f9fb98a"
    },
    {
      "constant": true,
      "inputs": [
        {
          "name": "place",
          "type": "uint256"
        },
        {
          "name": "potiumSize",
          "type": "uint256"
        },
        {
          "name": "pool",
          "type": "uint256"
        }
      ],
      "name": "getPrizeCalculation",
      "outputs": [
        {
          "name": "",
          "type": "uint256"
        }
      ],
      "payable": false,
      "stateMutability": "pure",
      "type": "function",
      "signature": "0x6c0481b5"
    },
    {
      "constant": true,
      "inputs": [],
      "name": "getPotiumSize",
      "outputs": [
        {
          "name": "",
          "type": "uint256"
        }
      ],
      "payable": false,
      "stateMutability": "view",
      "type": "function",
      "signature": "0x08d872ed"
    }
  ],
  "bytecode": "0x608060405234801561001057600080fd5b506119de806100206000396000f3fe608060405260043610610125576000357c01000000000000000000000000000000000000000000000000000000009004806388ffe867116100b2578063c2e5220611610081578063c2e522061461051b578063d0e30db014610546578063de90956014610550578063ed0813291461057b578063f74f36551461063357610125565b806388ffe867146104675780638faf9312146104925780639d5a0529146104c1578063b3509e8d146104f057610125565b80635efdeb57116100f95780635efdeb571461031c5780636c0481b5146103975780636f9fb98a146103fa578063719ce73e146104255780637fec8d381461045057610125565b8062775c1a1461012a57806308d872ed1461029b57806320899ab3146102c657806353aab434146102f1575b600080fd5b34801561013657600080fd5b506102816004803603604081101561014d57600080fd5b810190808035906020019064010000000081111561016a57600080fd5b82018360208201111561017c57600080fd5b8035906020019184602083028401116401000000008311171561019e57600080fd5b919080806020026020016040519081016040528093929190818152602001838360200280828437600081840152601f19601f820116905080830192505050505050509192919290803590602001906401000000008111156101fe57600080fd5b82018360208201111561021057600080fd5b8035906020019184602083028401116401000000008311171561023257600080fd5b919080806020026020016040519081016040528093929190818152602001838360200280828437600081840152601f19601f82011690508083019250505050505050919291929050505061068c565b604051808215151515815260200191505060405180910390f35b3480156102a757600080fd5b506102b061073f565b6040518082815260200191505060405180910390f35b3480156102d257600080fd5b506102db6107c7565b6040518082815260200191505060405180910390f35b3480156102fd57600080fd5b506103066107d4565b6040518082815260200191505060405180910390f35b34801561032857600080fd5b506103556004803603602081101561033f57600080fd5b81019080803590602001909291905050506107da565b604051808273ffffffffffffffffffffffffffffffffffffffff1673ffffffffffffffffffffffffffffffffffffffff16815260200191505060405180910390f35b3480156103a357600080fd5b506103e4600480360360608110156103ba57600080fd5b81019080803590602001909291908035906020019092919080359060200190929190505050610818565b6040518082815260200191505060405180910390f35b34801561040657600080fd5b5061040f61087a565b6040518082815260200191505060405180910390f35b34801561043157600080fd5b5061043a610899565b6040518082815260200191505060405180910390f35b34801561045c57600080fd5b5061046561089f565b005b34801561047357600080fd5b5061047c610936565b6040518082815260200191505060405180910390f35b34801561049e57600080fd5b506104a761093c565b604051808215151515815260200191505060405180910390f35b3480156104cd57600080fd5b506104d661094f565b604051808215151515815260200191505060405180910390f35b3480156104fc57600080fd5b5061050561096c565b6040518082815260200191505060405180910390f35b34801561052757600080fd5b50610530610972565b6040518082815260200191505060405180910390f35b61054e61097f565b005b34801561055c57600080fd5b50610565610c26565b6040518082815260200191505060405180910390f35b6106316004803603602081101561059157600080fd5b81019080803590602001906401000000008111156105ae57600080fd5b8201836020820111156105c057600080fd5b803590602001918460208302840111640100000000831117156105e257600080fd5b919080806020026020016040519081016040528093929190818152602001838360200280828437600081840152601f19601f820116905080830192505050505050509192919290505050610c2c565b005b34801561063f57600080fd5b506106766004803603604081101561065657600080fd5b810190808035906020019092919080359060200190929190505050610f05565b6040518082815260200191505060405180910390f35b60008160405160200180828051906020019060200280838360005b838110156106c25780820151818401526020810190506106a7565b50505050905001915050604051602081830303815290604052805190602001208360405160200180828051906020019060200280838360005b838110156107165780820151818401526020810190506106fb565b505050509050019150506040516020818303038152906040528051906020012014905092915050565b600060058080549050101561075757600190506107c4565b600061077160058080549050610f3590919063ffffffff16565b14156107965761078f60058080549050610f5a90919063ffffffff16565b90506107c4565b6107c160016107b360058080549050610f5a90919063ffffffff16565b610f8490919063ffffffff16565b90505b90565b6000600680549050905090565b60005481565b6005818154811015156107e957fe5b906000526020600020016000915054906101000a900473ffffffffffffffffffffffffffffffffffffffff1681565b60008060008090505b8481101561083e578060020a820191508080600101915050610821565b50600061086c826108588888610fa590919063ffffffff16565b869060020a02610f5a90919063ffffffff16565b905080925050509392505050565b60003073ffffffffffffffffffffffffffffffffffffffff1631905090565b60025481565b426108b7610e10600854610f8490919063ffffffff16565b11151561092c576040517f08c379a000000000000000000000000000000000000000000000000000000000815260040180806020018281038252601e8152602001807f31682068617320746f20706173732073696e6365206c61737420766f7465000081525060200191505060405180910390fd5b610934610fc7565b565b60015481565b600460009054906101000a900460ff1681565b600061095961106a565b610964576000610967565b60015b905090565b60085481565b6000600580549050905090565b60001515600460009054906101000a900460ff1615151415156109ed576040517f08c379a00000000000000000000000000000000000000000000000000000000081526004018080602001828103825260268152602001806119476026913960400191505060405180910390fd5b600960003373ffffffffffffffffffffffffffffffffffffffff1673ffffffffffffffffffffffffffffffffffffffff16815260200190815260200160002060009054906101000a900460ff16151515610aaf576040517f08c379a000000000000000000000000000000000000000000000000000000000815260040180806020018281038252601f8152602001807f4120706c617965722063616e206f6e6c79206465706f736974206f6e63652e0081525060200191505060405180910390fd5b60006005805490501415610acb57610ac63461107e565b610b2c565b6001546000540134141515610b2b576040517f08c379a00000000000000000000000000000000000000000000000000000000081526004018080602001828103825260348152602001806119136034913960400191505060405180910390fd5b5b610b43600154600354610f8490919063ffffffff16565b600381905550610b60600054600254610f8490919063ffffffff16565b60028190555060053390806001815401808255809150509060018203906000526020600020016000909192909190916101000a81548173ffffffffffffffffffffffffffffffffffffffff021916908373ffffffffffffffffffffffffffffffffffffffff160217905550506001600960003373ffffffffffffffffffffffffffffffffffffffff1673ffffffffffffffffffffffffffffffffffffffff16815260200190815260200160002060006101000a81548160ff021916908315150217905550565b60035481565b6001600460006101000a81548160ff02191690831515021790555060011515600960003373ffffffffffffffffffffffffffffffffffffffff1673ffffffffffffffffffffffffffffffffffffffff16815260200190815260200160002060009054906101000a900460ff161515141515610d0f576040517f08c379a000000000000000000000000000000000000000000000000000000000815260040180806020018281038252601e8152602001807f566f7465722073686f756c642062652070617274696369706174696e672e000081525060200191505060405180910390fd5b6001600a60003373ffffffffffffffffffffffffffffffffffffffff1673ffffffffffffffffffffffffffffffffffffffff16815260200190815260200160002080549050101515610dc9576040517f08c379a000000000000000000000000000000000000000000000000000000000815260040180806020018281038252601b8152602001807f4120706c617965722063616e206f6e6c7920766f7465206f6e6365000000000081525060200191505060405180910390fd5b610dd161073f565b8151141515610e2b576040517f08c379a000000000000000000000000000000000000000000000000000000000815260040180806020018281038252604681526020018061196d6046913960600191505060405180910390fd5b80600a60003373ffffffffffffffffffffffffffffffffffffffff1673ffffffffffffffffffffffffffffffffffffffff1681526020019081526020016000209080519060200190610e7e929190611845565b5060063390806001815401808255809150509060018203906000526020600020016000909192909190916101000a81548173ffffffffffffffffffffffffffffffffffffffff021916908373ffffffffffffffffffffffffffffffffffffffff1602179055505042600881905550610ef461094f565b15610f0257610f01610fc7565b5b50565b6000610f2d6064610f1f84866110b190919063ffffffff16565b610f5a90919063ffffffff16565b905092915050565b6000808214151515610f4657600080fd5b8183811515610f5157fe5b06905092915050565b60008082111515610f6a57600080fd5b60008284811515610f7757fe5b0490508091505092915050565b6000808284019050838110151515610f9b57600080fd5b8091505092915050565b6000828211151515610fb657600080fd5b600082840390508091505092915050565b610fcf6110ef565b7f215be423a2afeeee1f3f4d3cc730708809a96e17103a81f16896c0722bd20635333073ffffffffffffffffffffffffffffffffffffffff1631604051808373ffffffffffffffffffffffffffffffffffffffff1673ffffffffffffffffffffffffffffffffffffffff1681526020018281526020019250505060405180910390a13373ffffffffffffffffffffffffffffffffffffffff16ff5b600060068054905060058054905014905090565b600061108b826005610f05565b9050806001819055506110a78183610fa590919063ffffffff16565b6000819055505050565b6000808314156110c457600090506110e9565b600082840290508284828115156110d757fe5b041415156110e457600080fd5b809150505b92915050565b60606110f9611307565b90506111048161159b565b600061110e61073f565b90505b6000811115611303576000611130600183610fa590919063ffffffff16565b90506000838281518110151561114257fe5b906020019060200201519050600960008273ffffffffffffffffffffffffffffffffffffffff1673ffffffffffffffffffffffffffffffffffffffff16815260200190815260200160002060009054906101000a900460ff16151561120f576040517f08c379a000000000000000000000000000000000000000000000000000000000815260040180806020018281038252601c8152602001807f506c617965722068617320746f20626520726567697374657265642e0000000081525060200191505060405180910390fd5b60006112258461121d61073f565b600254610818565b9050600184141561124f5761124c60035461123e61087a565b610f8490919063ffffffff16565b90505b7fbbc656893463c2eae16d5d39833a6800dcb31c98900357ecb9e6405a56080d6581600254604051808381526020018281526020019250505060405180910390a16112a581600254610fa590919063ffffffff16565b6002819055508173ffffffffffffffffffffffffffffffffffffffff166108fc829081150290604051600060405180830381858888f193505050501580156112f1573d6000803e3d6000fd5b50505050808060019003915050611111565b5050565b60606000809050606080606060008090505b6006805490508160ff161015611590576000809050600a600060068460ff1681548110151561134457fe5b9060005260206000200160009054906101000a900473ffffffffffffffffffffffffffffffffffffffff1673ffffffffffffffffffffffffffffffffffffffff1673ffffffffffffffffffffffffffffffffffffffff16815260200190815260200160002080548060200260200160405190810160405280929190818152602001828054801561142957602002820191906000526020600020905b8160009054906101000a900473ffffffffffffffffffffffffffffffffffffffff1673ffffffffffffffffffffffffffffffffffffffff16815260200190600101908083116113df575b505050505093506000600190505b6006805490508160ff16101561156c57600a600060068360ff1681548110151561145d57fe5b9060005260206000200160009054906101000a900473ffffffffffffffffffffffffffffffffffffffff1673ffffffffffffffffffffffffffffffffffffffff1673ffffffffffffffffffffffffffffffffffffffff16815260200190815260200160002080548060200260200160405190810160405280929190818152602001828054801561154257602002820191906000526020600020905b8160009054906101000a900473ffffffffffffffffffffffffffffffffffffffff1673ffffffffffffffffffffffffffffffffffffffff16815260200190600101908083116114f8575b50505050509350611553858561068c565b1561155f576001820191505b8080600101915050611437565b508560ff168160ff161115611582578095508394505b508080600101915050611319565b508294505050505090565b60008090505b600680549050811015611766576116b4600a60006006848154811015156115c457fe5b9060005260206000200160009054906101000a900473ffffffffffffffffffffffffffffffffffffffff1673ffffffffffffffffffffffffffffffffffffffff1673ffffffffffffffffffffffffffffffffffffffff1681526020019081526020016000208054806020026020016040519081016040528092919081815260200182805480156116a957602002820191906000526020600020905b8160009054906101000a900473ffffffffffffffffffffffffffffffffffffffff1673ffffffffffffffffffffffffffffffffffffffff168152602001906001019080831161165f575b50505050508361068c565b156117595760076006828154811015156116ca57fe5b9060005260206000200160009054906101000a900473ffffffffffffffffffffffffffffffffffffffff1690806001815401808255809150509060018203906000526020600020016000909192909190916101000a81548173ffffffffffffffffffffffffffffffffffffffff021916908373ffffffffffffffffffffffffffffffffffffffff160217905550505b80806001019150506115a1565b506000611783600780549050600354610f5a90919063ffffffff16565b905060008090505b600780549050811015611840576117ad82600354610fa590919063ffffffff16565b6003819055506007818154811015156117c257fe5b9060005260206000200160009054906101000a900473ffffffffffffffffffffffffffffffffffffffff1673ffffffffffffffffffffffffffffffffffffffff166108fc839081150290604051600060405180830381858888f19350505050158015611832573d6000803e3d6000fd5b50808060010191505061178b565b505050565b8280548282559060005260206000209081019282156118be579160200282015b828111156118bd5782518260006101000a81548173ffffffffffffffffffffffffffffffffffffffff021916908373ffffffffffffffffffffffffffffffffffffffff16021790555091602001919060010190611865565b5b5090506118cb91906118cf565b5090565b61190f91905b8082111561190b57600081816101000a81549073ffffffffffffffffffffffffffffffffffffffff0219169055506001016118d5565b5090565b9056fe56616c75652073656e742068617320746f206d6174636820746865206275792d696e202b206465706f73697420616d6f756e742e566f74696e6720737461727465642c20726567697374726174696f6e2068617320656e64656454686520616d6f756e74206f662061646472657373657320696e20706c617965722062616c6c6f742068617320746f206d617463682074686520706f7469756d2073697a652ea165627a7a7230582026bf3454e8214496cdd46f85b5a30322210d763872715f700c587b84f4ff1a040029",
  "source": "pragma solidity ^0.5.4;\n\nimport \"../node_modules/openzeppelin-solidity/contracts/math/SafeMath.sol\";\n\n\ncontract HomelessPoker {\n\n    using SafeMath for uint;\n    uint public buyIn;\n    uint public pledge;\n    uint public prizePool;\n    uint public pledgePool;\n    bool public votingHasStarted;\n    address[] public playersRegistered;\n    address payable[] private playersVoted;\n    address payable[] private playersVotedCorrectly;\n    uint public lastVote;\n\n    mapping(address => bool) private isRegistered; // TODO: move this to player struct\n    mapping(address => address payable[]) private ballot;\n    mapping(address => uint) private count;\n\n    event LogDeposit (address sender, uint amount, uint balance);\n    event LogRefund (uint deposit, uint pledgePool, uint contractBalance);\n    event LogDeposit2 (uint buyIn, uint deposit);\n    event LogHandout (uint prize, uint prizePool);\n    event LogVoting (uint prizePool, bool hasEverybodyVoted);\n    event LogPrize (uint prize);\n    event LogCalc (uint prizePool, uint i, uint prizeMath);\n    event LogSelfDestruct (address sender, uint accountBalance);\n\n\n    // can a constructor set the first deposit?\n\n    // pick a username when joining\n    function deposit() public payable {\n        require(votingHasStarted == false, \"Voting started, registration has ended\");\n        require(!isRegistered[msg.sender], \"A player can only deposit once.\");\n\n        /* First depositee sets the buy-in amount */\n        if (playersRegistered.length == 0) { // TODO: Move to contstructor\n            setBuyIn(msg.value);\n        }\n        else {\n            // TODO: allow higher payments\n            require(msg.value == (buyIn + pledge), \"Value sent has to match the buy-in + deposit amount.\");\n        }\n\n        pledgePool = pledgePool.add(pledge);\n        prizePool = prizePool.add(buyIn);\n        // emit LogDeposit2(buyIn, pledge);\n        playersRegistered.push(msg.sender);\n        isRegistered[msg.sender] = true;\n\n        //emit LogDeposit(msg.sender, msg.value, msg.sender.balance);\n    }\n\n    function getPlayerCount() public view returns (int) {\n        return int(playersRegistered.length);\n    }\n\n    function getPlayersVotedCount() public view returns (int) {\n        return int(playersVoted.length);\n    }\n\n    // First iteration will trust that every player votes correctly:\n    // player sends in a listOfWinners array arranged from first to last place\n    function vote(address payable[] memory playerBallot) public payable {\n        votingHasStarted = true;\n        // emit LogVoting(prizePool, allPlayersHaveVoted());\n        require(isRegistered[msg.sender] == true, \"Voter should be participating.\");\n        require(ballot[msg.sender].length < 1, \"A player can only vote once\");\n        require(\n            playerBallot.length == getPotiumSize(),\n            \"The amount of addresses in player ballot has to match the potium size.\"\n        );\n\n        // mapping a players ballot (kjörseðill) to his address\n        ballot[msg.sender] = playerBallot;\n    \n        // maintain an iterable record for who has voted\n        playersVoted.push(msg.sender);\n\n        // set a time\n        lastVote = now;\n\n        if (votingEnded()) {\n            resolve();\n        }\n    }\n\n    // trigger activated 1h after last vote\n    function trigger() public {\n        require(lastVote.add(3600) > now, \"1h has to pass since last vote\");\n        resolve();\n    }\n\n    function votingEnded() public view returns (bool) {\n        return allPlayersHaveVoted() ? true : false;\n    }\n\n    function getPercentage(uint number, uint percent) public pure returns (uint) {\n        return number.mul(percent).div(100);\n    }\n\n    function isEqual(address payable[] memory ballotOne, address payable[] memory ballotTwo) \n    public pure returns (bool) {\n        return keccak256(abi.encodePacked(ballotOne)) == keccak256(abi.encodePacked(ballotTwo));\n    }\n\n    function getContractBalance() public view returns (uint) {\n        return address(this).balance;\n    }\n\n    function getPrizeCalculation(uint place, uint potiumSize, uint pool) public pure returns (uint) {\n        uint prizeMath;\n\n        for (uint exp = 0; exp < potiumSize; exp++) {\n            prizeMath += 2**exp;\n        }\n        // x << y == x * 2**y\n        uint prize = (pool << potiumSize.sub(place)).div(prizeMath);\n\n        return prize;\n    }\n\n    /* 20% of all players get rewards */\n    function getPotiumSize() public view returns (uint) {\n        if (playersRegistered.length < 5) {\n            return 1;\n        }\n        else if (playersRegistered.length.mod(5) == 0) {\n            return uint(playersRegistered.length.div(5));\n        }\n        return uint(playersRegistered.length.div(5)).add(1);\n    }\n\n    function resolve () private {\n        handOutReward();\n        emit LogSelfDestruct(msg.sender, address(this).balance);\n        selfdestruct(msg.sender);\n    }\n\n    // this function takes tons of gas, the last player to vote\n    // uses almost 300.000 additional gas\n    function getWinningBallot() private view returns (address payable[] memory) {\n\n        uint8 max = 0;\n        address payable[] memory winningBallot;\n        address payable[] memory thisBallot;\n        address payable[] memory restOfBallots;\n\n        for(uint8 i = 0; i < playersVoted.length; i++ ) {\n            uint8 counter = 0;\n            thisBallot = ballot[playersVoted[i]];\n\n            for(uint8 j = 1; j < playersVoted.length; j++) {\n                restOfBallots = ballot[playersVoted[j]];\n                if (isEqual(thisBallot, restOfBallots)) {\n                    counter += 1;\n                }\n            }\n            if(counter > max) {\n                max = counter;\n                winningBallot = thisBallot;\n            }\n        }\n        return winningBallot;\n    }\n\n    function refundPledge(address payable[] memory winningBallot) private {\n        for ( uint i = 0; i < playersVoted.length; i++ ) {\n            if (isEqual(ballot[playersVoted[i]], winningBallot)) {\n                playersVotedCorrectly.push(playersVoted[i]);\n            }\n        }\n        uint pledgeHandout = pledgePool.div(playersVotedCorrectly.length);\n        for ( uint i = 0; i < playersVotedCorrectly.length; i++) {\n            pledgePool = pledgePool.sub(pledgeHandout);\n            playersVotedCorrectly[i].transfer(pledgeHandout);\n        }\n    }\n\n    function handOutReward() private {\n        address payable[] memory winningBallot = getWinningBallot();\n\n        refundPledge(winningBallot); // TODO test\n\n        for(uint place = getPotiumSize(); place > 0; place--) {\n            uint slot = place.sub(1);\n            address payable playerAccount = winningBallot[slot];\n\n            require(isRegistered[playerAccount], \"Player has to be registered.\");\n            uint prize = getPrizeCalculation(place, getPotiumSize(), prizePool);\n\n            // The top player gets the \"dust\" + pledgePool if someone didn't vote\n            if (place == 1) {\n                prize = getContractBalance().add(pledgePool);\n            }\n\n            emit LogHandout(prize, prizePool);\n            prizePool = prizePool.sub(prize);\n            playerAccount.transfer(prize);\n        }\n    }\n\n    // function refundDeposit(address payable sender) private {\n    //     pledgePool = pledgePool.sub(pledge);\n    //     sender.transfer(pledge);\n    //     emit LogRefund(pledge, pledgePool, getContractBalance());\n    // }\n\n    function setBuyIn(uint amount) private {\n        uint pledgeAmount = getPercentage(amount, 5);\n        // uint pledgeAmount = amount == 0 ? 0 : 0.01 ether;\n        pledge = pledgeAmount;\n        buyIn = amount.sub(pledgeAmount);\n    }\n\n    function transferDepositBack() private {\n        for(uint i = 0; i < playersVoted.length; i++ ) {\n            pledgePool = pledgePool.sub(pledge);\n            playersVoted[i].transfer(pledge);\n        }\n    }\n\n    function allPlayersHaveVoted() private view returns (bool) {\n        return (playersRegistered.length == playersVoted.length);\n    }\n\n}\n",
  "sourcePath": "/Users/einaralex/Development/Projects/Homeless-Poker/contracts/HomelessPoker.sol",
  "compiler": {
    "name": "solc",
    "version": "0.5.4+commit.9549d8ff.Emscripten.clang"
  },
  "schemaVersion": "3.0.2",
  "updatedAt": "2019-03-24T16:55:18.456Z",
  "devdoc": {
    "methods": {}
  },
  "userdoc": {
    "methods": {}
  }
}