{
  "contractName": "HomelessPoker",
  "abi": [
    {
      "constant": true,
      "inputs": [
        {
          "name": "",
          "type": "bytes32"
        }
      ],
      "name": "candidates",
      "outputs": [
        {
          "name": "voteCount",
          "type": "uint256"
        }
      ],
      "payable": false,
      "stateMutability": "view",
      "type": "function"
    },
    {
      "constant": true,
      "inputs": [
        {
          "name": "",
          "type": "address"
        }
      ],
      "name": "player",
      "outputs": [
        {
          "name": "username",
          "type": "bytes32"
        },
        {
          "name": "hasVoted",
          "type": "bool"
        }
      ],
      "payable": false,
      "stateMutability": "view",
      "type": "function"
    },
    {
      "constant": true,
      "inputs": [],
      "name": "buyIn",
      "outputs": [
        {
          "name": "",
          "type": "uint256"
        }
      ],
      "payable": false,
      "stateMutability": "view",
      "type": "function"
    },
    {
      "constant": true,
      "inputs": [
        {
          "name": "",
          "type": "uint256"
        }
      ],
      "name": "playersRegistered",
      "outputs": [
        {
          "name": "",
          "type": "address"
        }
      ],
      "payable": false,
      "stateMutability": "view",
      "type": "function"
    },
    {
      "constant": true,
      "inputs": [],
      "name": "majorityVoted",
      "outputs": [
        {
          "name": "",
          "type": "bool"
        }
      ],
      "payable": false,
      "stateMutability": "view",
      "type": "function"
    },
    {
      "constant": true,
      "inputs": [],
      "name": "distributionHasEnded",
      "outputs": [
        {
          "name": "",
          "type": "bool"
        }
      ],
      "payable": false,
      "stateMutability": "view",
      "type": "function"
    },
    {
      "constant": true,
      "inputs": [],
      "name": "timer",
      "outputs": [
        {
          "name": "",
          "type": "uint256"
        }
      ],
      "payable": false,
      "stateMutability": "view",
      "type": "function"
    },
    {
      "constant": true,
      "inputs": [],
      "name": "potiumSize",
      "outputs": [
        {
          "name": "",
          "type": "uint256"
        }
      ],
      "payable": false,
      "stateMutability": "view",
      "type": "function"
    },
    {
      "constant": true,
      "inputs": [
        {
          "name": "",
          "type": "uint256"
        }
      ],
      "name": "playersVoted",
      "outputs": [
        {
          "name": "",
          "type": "address"
        }
      ],
      "payable": false,
      "stateMutability": "view",
      "type": "function"
    },
    {
      "constant": true,
      "inputs": [],
      "name": "roomSize",
      "outputs": [
        {
          "name": "",
          "type": "uint256"
        }
      ],
      "payable": false,
      "stateMutability": "view",
      "type": "function"
    },
    {
      "inputs": [
        {
          "name": "name",
          "type": "bytes32"
        },
        {
          "name": "_roomSize",
          "type": "uint256"
        },
        {
          "name": "_roomSecret",
          "type": "bytes32"
        }
      ],
      "payable": true,
      "stateMutability": "payable",
      "type": "constructor"
    },
    {
      "anonymous": false,
      "inputs": [
        {
          "indexed": false,
          "name": "place",
          "type": "uint256"
        },
        {
          "indexed": false,
          "name": "prize",
          "type": "uint256"
        },
        {
          "indexed": false,
          "name": "getContractBalance",
          "type": "uint256"
        }
      ],
      "name": "DebugDistribution",
      "type": "event"
    },
    {
      "anonymous": false,
      "inputs": [
        {
          "indexed": false,
          "name": "getContractBalance",
          "type": "uint256"
        }
      ],
      "name": "DebugDistribution2",
      "type": "event"
    },
    {
      "anonymous": false,
      "inputs": [
        {
          "indexed": false,
          "name": "ballot",
          "type": "address[]"
        }
      ],
      "name": "DebugMajorityHasVoted",
      "type": "event"
    },
    {
      "anonymous": false,
      "inputs": [
        {
          "indexed": false,
          "name": "depositHandout",
          "type": "uint256"
        },
        {
          "indexed": false,
          "name": "getContractBalance",
          "type": "uint256"
        }
      ],
      "name": "DebugRefundDeposits",
      "type": "event"
    },
    {
      "constant": true,
      "inputs": [],
      "name": "getPlayersVotedCount",
      "outputs": [
        {
          "name": "",
          "type": "int256"
        }
      ],
      "payable": false,
      "stateMutability": "view",
      "type": "function"
    },
    {
      "constant": true,
      "inputs": [],
      "name": "votingCanStart",
      "outputs": [
        {
          "name": "",
          "type": "bool"
        }
      ],
      "payable": false,
      "stateMutability": "view",
      "type": "function"
    },
    {
      "constant": false,
      "inputs": [
        {
          "name": "name",
          "type": "bytes32"
        },
        {
          "name": "_roomSecret",
          "type": "bytes32"
        }
      ],
      "name": "register",
      "outputs": [],
      "payable": true,
      "stateMutability": "payable",
      "type": "function"
    },
    {
      "constant": false,
      "inputs": [
        {
          "name": "ballot",
          "type": "address[]"
        }
      ],
      "name": "vote",
      "outputs": [],
      "payable": false,
      "stateMutability": "nonpayable",
      "type": "function"
    },
    {
      "constant": false,
      "inputs": [],
      "name": "killswitch",
      "outputs": [],
      "payable": false,
      "stateMutability": "nonpayable",
      "type": "function"
    },
    {
      "constant": true,
      "inputs": [
        {
          "name": "number",
          "type": "uint256"
        },
        {
          "name": "percent",
          "type": "uint256"
        }
      ],
      "name": "getPercentage",
      "outputs": [
        {
          "name": "",
          "type": "uint256"
        }
      ],
      "payable": false,
      "stateMutability": "pure",
      "type": "function"
    },
    {
      "constant": true,
      "inputs": [],
      "name": "getContractBalance",
      "outputs": [
        {
          "name": "",
          "type": "uint256"
        }
      ],
      "payable": false,
      "stateMutability": "view",
      "type": "function"
    },
    {
      "constant": true,
      "inputs": [
        {
          "name": "place",
          "type": "uint256"
        },
        {
          "name": "_potiumSize",
          "type": "uint256"
        },
        {
          "name": "pool",
          "type": "uint256"
        }
      ],
      "name": "getPrizeCalculation",
      "outputs": [
        {
          "name": "",
          "type": "uint256"
        }
      ],
      "payable": false,
      "stateMutability": "pure",
      "type": "function"
    }
  ],
  "bytecode": "0x608060405260405160608062001ea0833981018060405260608110156200002557600080fd5b810190808051906020019092919080519060200190929190805190602001909291905050506000600102831415620000c5576040517f08c379a000000000000000000000000000000000000000000000000000000000815260040180806020018281038252601b8152602001807f596f75206861766520746f207069636b206120757365726e616d65000000000081525060200191505060405180910390fd5b346000819055508160028190555080600581905550620000f48262000119640100000000026401000000009004565b5062000110838262000162640100000000026401000000009004565b50505062000483565b600080600583816200012757fe5b0614156200014757600582816200013a57fe5b046001819055506200015d565b6001600583816200015457fe5b04016001819055505b919050565b8060055414620001be576040517f08c379a000000000000000000000000000000000000000000000000000000000815260040180806020018281038252602f81526020018062001e71602f913960400191505060405180910390fd5b600060010282141562000239576040517f08c379a000000000000000000000000000000000000000000000000000000000815260040180806020018281038252601b8152602001807f596f75206861766520746f207069636b206120757365726e616d65000000000081525060200191505060405180910390fd5b600054341462000295576040517f08c379a000000000000000000000000000000000000000000000000000000000815260040180806020018281038252602281526020018062001e4f6022913960400191505060405180910390fd5b600254600160078054905001111562000316576040517f08c379a000000000000000000000000000000000000000000000000000000000815260040180806020018281038252600c8152602001807f526f6f6d2069732066756c6c000000000000000000000000000000000000000081525060200191505060405180910390fd5b6000600102600960003373ffffffffffffffffffffffffffffffffffffffff1673ffffffffffffffffffffffffffffffffffffffff1681526020019081526020016000206000015414620003d2576040517f08c379a000000000000000000000000000000000000000000000000000000000815260040180806020018281038252601a8152602001807f596f752063616e206f6e6c79206465706f736974206f6e63652e00000000000081525060200191505060405180910390fd5b81600960003373ffffffffffffffffffffffffffffffffffffffff1673ffffffffffffffffffffffffffffffffffffffff1681526020019081526020016000206000018190555060073390806001815401808255809150509060018203906000526020600020016000909192909190916101000a81548173ffffffffffffffffffffffffffffffffffffffff021916908373ffffffffffffffffffffffffffffffffffffffff160217905550505050565b6119bc80620004936000396000f3fe608060405260043610610126576000357c0100000000000000000000000000000000000000000000000000000000900480636c0481b5116100b257806391cb14241161008157806391cb142414610450578063ad9f6f821461047b578063e69dd2b9146104f6578063ed08132914610521578063f74f3655146105e657610126565b80636c0481b5146103685780636f9fb98a146103cb57806388c9cb3c146103f65780638fff3eee1461042157610126565b80634c54e1b5116100f95780634c54e1b5146101f457806353aab434146102645780635efdeb571461028f57806363aa4fbe1461030a5780636998c9fe1461033957610126565b80631a0478d51461012b57806320899ab31461017a5780632f926732146101a557806342dd96f7146101dd575b600080fd5b34801561013757600080fd5b506101646004803603602081101561014e57600080fd5b810190808035906020019092919050505061063f565b6040518082815260200191505060405180910390f35b34801561018657600080fd5b5061018f61065d565b6040518082815260200191505060405180910390f35b6101db600480360360408110156101bb57600080fd5b81019080803590602001909291908035906020019092919050505061066a565b005b3480156101e957600080fd5b506101f2610984565b005b34801561020057600080fd5b506102436004803603602081101561021757600080fd5b81019080803573ffffffffffffffffffffffffffffffffffffffff169060200190929190505050610c0c565b60405180838152602001821515151581526020019250505060405180910390f35b34801561027057600080fd5b50610279610c3d565b6040518082815260200191505060405180910390f35b34801561029b57600080fd5b506102c8600480360360208110156102b257600080fd5b8101908080359060200190929190505050610c43565b604051808273ffffffffffffffffffffffffffffffffffffffff1673ffffffffffffffffffffffffffffffffffffffff16815260200191505060405180910390f35b34801561031657600080fd5b5061031f610c7f565b604051808215151515815260200191505060405180910390f35b34801561034557600080fd5b5061034e610c92565b604051808215151515815260200191505060405180910390f35b34801561037457600080fd5b506103b56004803603606081101561038b57600080fd5b81019080803590602001909291908035906020019092919080359060200190929190505050610ca5565b6040518082815260200191505060405180910390f35b3480156103d757600080fd5b506103e0610ce8565b6040518082815260200191505060405180910390f35b34801561040257600080fd5b5061040b610d07565b6040518082815260200191505060405180910390f35b34801561042d57600080fd5b50610436610d0d565b604051808215151515815260200191505060405180910390f35b34801561045c57600080fd5b50610465610d1e565b6040518082815260200191505060405180910390f35b34801561048757600080fd5b506104b46004803603602081101561049e57600080fd5b8101908080359060200190929190505050610d24565b604051808273ffffffffffffffffffffffffffffffffffffffff1673ffffffffffffffffffffffffffffffffffffffff16815260200191505060405180910390f35b34801561050257600080fd5b5061050b610d60565b6040518082815260200191505060405180910390f35b34801561052d57600080fd5b506105e46004803603602081101561054457600080fd5b810190808035906020019064010000000081111561056157600080fd5b82018360208201111561057357600080fd5b8035906020019184602083028401116401000000008311171561059557600080fd5b919080806020026020016040519081016040528093929190818152602001838360200280828437600081840152601f19601f820116905080830192505050505050509192919290505050610d66565b005b3480156105f257600080fd5b506106296004803603604081101561060957600080fd5b81019080803590602001909291908035906020019092919050505061140a565b6040518082815260200191505060405180910390f35b600a6020528060005260406000206000915090508060000154905081565b6000600680549050905090565b80600554146106c4576040517f08c379a000000000000000000000000000000000000000000000000000000000815260040180806020018281038252602f8152602001806118fd602f913960400191505060405180910390fd5b600060010282141561073e576040517f08c379a000000000000000000000000000000000000000000000000000000000815260040180806020018281038252601b8152602001807f596f75206861766520746f207069636b206120757365726e616d65000000000081525060200191505060405180910390fd5b6000543414610798576040517f08c379a00000000000000000000000000000000000000000000000000000000081526004018080602001828103825260228152602001806118546022913960400191505060405180910390fd5b6002546001600780549050011115610818576040517f08c379a000000000000000000000000000000000000000000000000000000000815260040180806020018281038252600c8152602001807f526f6f6d2069732066756c6c000000000000000000000000000000000000000081525060200191505060405180910390fd5b6000600102600960003373ffffffffffffffffffffffffffffffffffffffff1673ffffffffffffffffffffffffffffffffffffffff16815260200190815260200160002060000154146108d3576040517f08c379a000000000000000000000000000000000000000000000000000000000815260040180806020018281038252601a8152602001807f596f752063616e206f6e6c79206465706f736974206f6e63652e00000000000081525060200191505060405180910390fd5b81600960003373ffffffffffffffffffffffffffffffffffffffff1673ffffffffffffffffffffffffffffffffffffffff1681526020019081526020016000206000018190555060073390806001815401808255809150509060018203906000526020600020016000909192909190916101000a81548173ffffffffffffffffffffffffffffffffffffffff021916908373ffffffffffffffffffffffffffffffffffffffff160217905550505050565b6000600102600960003373ffffffffffffffffffffffffffffffffffffffff1673ffffffffffffffffffffffffffffffffffffffff168152602001908152602001600020600001541415610a23576040517f08c379a000000000000000000000000000000000000000000000000000000000815260040180806020018281038252602c815260200180611876602c913960400191505060405180910390fd5b6002546007805490501415610b5357600860019054906101000a900460ff1615610a98576040517f08c379a000000000000000000000000000000000000000000000000000000000815260040180806020018281038252602d8152602001806118a2602d913960400191505060405180910390fd5b610e10600354014211610af6576040517f08c379a00000000000000000000000000000000000000000000000000000000081526004018080602001828103825260288152602001806119696028913960400191505060405180910390fd5b60006003541415610b52576040517f08c379a000000000000000000000000000000000000000000000000000000000815260040180806020018281038252603d81526020018061192c603d913960400191505060405180910390fd5b5b60008090505b600780549050811015610c095760078181548110610b7357fe5b9060005260206000200160009054906101000a900473ffffffffffffffffffffffffffffffffffffffff1673ffffffffffffffffffffffffffffffffffffffff1673ffffffffffffffffffffffffffffffffffffffff166108fc6000549081150290604051600060405180830381858888f19350505050158015610bfb573d6000803e3d6000fd5b508080600101915050610b59565b50565b60096020528060005260406000206000915090508060000154908060010160009054906101000a900460ff16905082565b60005481565b60078181548110610c5057fe5b906000526020600020016000915054906101000a900473ffffffffffffffffffffffffffffffffffffffff1681565b600860019054906101000a900460ff1681565b600860009054906101000a900460ff1681565b60008060008090505b84811015610ccb578060020a820191508080600101915050610cae565b5080858503849060020a0281610cdd57fe5b049150509392505050565b60003073ffffffffffffffffffffffffffffffffffffffff1631905090565b60035481565b600060025460078054905014905090565b60015481565b60068181548110610d3157fe5b906000526020600020016000915054906101000a900473ffffffffffffffffffffffffffffffffffffffff1681565b60025481565b60025460078054905014610dc5576040517f08c379a000000000000000000000000000000000000000000000000000000000815260040180806020018281038252602e8152602001806118cf602e913960400191505060405180910390fd5b6000600102600960003373ffffffffffffffffffffffffffffffffffffffff1673ffffffffffffffffffffffffffffffffffffffff168152602001908152602001600020600001541415610e64576040517f08c379a000000000000000000000000000000000000000000000000000000000815260040180806020018281038252602b8152602001806117c9602b913960400191505060405180910390fd5b60001515600960003373ffffffffffffffffffffffffffffffffffffffff1673ffffffffffffffffffffffffffffffffffffffff16815260200190815260200160002060010160009054906101000a900460ff16151514610f2d576040517f08c379a00000000000000000000000000000000000000000000000000000000081526004018080602001828103825260158152602001807f596f752063616e277420766f746520616761696e2e000000000000000000000081525060200191505060405180910390fd5b600154815114610f88576040517f08c379a000000000000000000000000000000000000000000000000000000000815260040180806020018281038252603d8152602001806117f4603d913960400191505060405180910390fd5b6001600960003373ffffffffffffffffffffffffffffffffffffffff1673ffffffffffffffffffffffffffffffffffffffff16815260200190815260200160002060010160006101000a81548160ff02191690831515021790555060063390806001815401808255809150509060018203906000526020600020016000909192909190916101000a81548173ffffffffffffffffffffffffffffffffffffffff021916908373ffffffffffffffffffffffffffffffffffffffff1602179055505060008160405160200180828051906020019060200280838360005b8381101561107f578082015181840152602081019050611064565b50505050905001915050604051602081830303815290604052805190602001209050600860009054906101000a900460ff1615611168576004548114611110576040517f08c379a00000000000000000000000000000000000000000000000000000000081526004018080602001828103825260238152602001806118316023913960400191505060405180910390fd5b3373ffffffffffffffffffffffffffffffffffffffff166108fc611137600054600561140a565b9081150290604051600060405180830381858888f19350505050158015611162573d6000803e3d6000fd5b50611406565b6001600a600083815260200190815260200160002060000160008282540192505081905550600a60008281526020019081526020016000206001013390806001815401808255809150509060018203906000526020600020016000909192909190916101000a81548173ffffffffffffffffffffffffffffffffffffffff021916908373ffffffffffffffffffffffffffffffffffffffff1602179055505081600a600083815260200190815260200160002060020190805190602001906112319291906116fb565b50600a6000600454815260200190815260200160002060000154600a600083815260200190815260200160002060000154111561127057806004819055505b611281600254600680549050611421565b42600381905550600860019054906101000a900460ff1615611405577f3e2c10a288e3fb8c77344510bbf95c45e4ce7bd214ab5ad2a8fa1a595dbfe98f600a600060045481526020019081526020016000206002016040518080602001828103825283818154815260200191508054801561135157602002820191906000526020600020905b8160009054906101000a900473ffffffffffffffffffffffffffffffffffffffff1673ffffffffffffffffffffffffffffffffffffffff1681526020019060010190808311611307575b50509250505060405180910390a1611404600a600060045481526020019081526020016000206002018054806020026020016040519081016040528092919081815260200182805480156113fa57602002820191906000526020600020905b8160009054906101000a900473ffffffffffffffffffffffffffffffffffffffff1673ffffffffffffffffffffffffffffffffffffffff16815260200190600101908083116113b0575b505050505061144f565b5b5b5050565b600060648284028161141857fe5b04905092915050565b600161142e83603261140a565b01811015600860016101000a81548160ff0219169083151502179055505050565b6114576115c0565b60008060008060015490505b600081111561157b5760018103935084848151811061147e57fe5b602002602001015173ffffffffffffffffffffffffffffffffffffffff1691506114bb816001546114b660025460005402605f61140a565b610ca5565b92507fc23b749c4c96ccecf71b3d5e92a406891cbb3893ed0989e66d96c8559ee8199081846114e8610ce8565b60405180848152602001838152602001828152602001935050505060405180910390a16001600860006101000a81548160ff0219169083151502179055508173ffffffffffffffffffffffffffffffffffffffff166108fc849081150290604051600060405180830381858888f1935050505015801561156c573d6000803e3d6000fd5b50808060019003915050611463565b507f445ad1860dc74891cb96f821d3325bbdd78f3892c7cf3fb1fa04352e1838b9096115a5610ce8565b6040518082815260200191505060405180910390a150505050565b60006115cf600054600561140a565b90507f2decee1ee85e12fa3b233f7c860e54d66328b29b8f789061ff2e63492448f4c2816115fb610ce8565b604051808381526020018281526020019250505060405180910390a160008090505b600a60006004548152602001908152602001600020600101805490508110156116f757600a60006004548152602001908152602001600020600101818154811061166357fe5b9060005260206000200160009054906101000a900473ffffffffffffffffffffffffffffffffffffffff1673ffffffffffffffffffffffffffffffffffffffff1673ffffffffffffffffffffffffffffffffffffffff166108fc839081150290604051600060405180830381858888f193505050501580156116e9573d6000803e3d6000fd5b50808060010191505061161d565b5050565b828054828255906000526020600020908101928215611774579160200282015b828111156117735782518260006101000a81548173ffffffffffffffffffffffffffffffffffffffff021916908373ffffffffffffffffffffffffffffffffffffffff1602179055509160200191906001019061171b565b5b5090506117819190611785565b5090565b6117c591905b808211156117c157600081816101000a81549073ffffffffffffffffffffffffffffffffffffffff02191690555060010161178b565b5090565b9056fe596f752063616e277420766f746520696620796f75277265206e6f742070617274696369706174696e672e54686520616d6f756e74206f6620706c617965727320696e2062616c6c6f742068617320746f206d617463682074686520706f7469756d2073697a652e566f74652068617320746f206d617463682074686520746f702063616e646964617465596f75722076616c75652068617320746f206d6174636820746865206275792d696e506c617965722068617320746f206265207265676973746572656420746f206b696c6c20636f6e747261637443616e206e6f74206b696c6c20636f6e7472616374207768656e206d616a6f726974792068617320766f74656443616e277420737461727420766f74696e672c206e6f74206576657279626f6479206973207369676e6564207570596f75206861766520746f2068617665207468652072696768742073656372657420666f72207468697320726f6f6d43616e206e6f74206b696c6c206120636f6e747261637420776974682065766572796f6e65207265676973746572656420616e64206e6f20766f746573416e20686f7572206d7573742068617665207061737365642073696e6365206c61737420766f7465a165627a7a72305820d7aac46295876bc3313dbb59cc971049d0c61d47f39497bf8e5f43ec0525a2130029596f75722076616c75652068617320746f206d6174636820746865206275792d696e596f75206861766520746f2068617665207468652072696768742073656372657420666f72207468697320726f6f6d",
  "source": "pragma solidity 0.5.6;\n\n\ncontract HomelessPoker {\n\n    event DebugDistribution (uint place, uint prize, uint getContractBalance);\n    event DebugDistribution2 (uint getContractBalance);\n    event DebugMajorityHasVoted(address[] ballot);\n    event DebugRefundDeposits(uint depositHandout, uint getContractBalance);\n\n    uint public buyIn;\n    uint public potiumSize;\n    uint public roomSize;\n    uint public timer;\n    \n    bytes32 private winningBallot;\n    bytes32 private roomSecret;\n    \n    address[] public playersVoted;\n    address[] public playersRegistered;\n\n    bool public distributionHasEnded;\n    bool public majorityVoted;\n\n    struct Player {\n        bytes32 username;\n        bool hasVoted;\n    }\n    \n    struct Candidate {\n        uint voteCount;\n        address[] voters;\n        address[] ballot;\n    }\n    \n    mapping(address => Player) public player;\n    mapping(bytes32 => Candidate) public candidates;\n\n    constructor(bytes32 name, uint _roomSize, bytes32 _roomSecret) public payable {\n        require(name != 0, \"You have to pick a username\");\n        buyIn = msg.value;\n        roomSize = _roomSize;\n        roomSecret = _roomSecret;\n        setPotiumSize(_roomSize);\n        register(name, _roomSecret);\n    }\n\n    function getPlayersVotedCount() external view returns (int) {\n        return int(playersVoted.length);\n    }\n\n    function votingCanStart() external view returns (bool) {\n        return playersRegistered.length == roomSize;\n    }\n\n    function register(bytes32 name, bytes32 _roomSecret) public payable {\n        require(roomSecret == _roomSecret, \"You have to have the right secret for this room\");\n        require(name != 0, \"You have to pick a username\");\n        require(msg.value == buyIn, \"Your value has to match the buy-in\");\n        require(playersRegistered.length+1 <= roomSize, \"Room is full\");\n        require(player[msg.sender].username == 0, \"You can only deposit once.\");\n\n        player[msg.sender].username = name;\n        playersRegistered.push(msg.sender);\n    }\n\n    function vote(address payable[] memory ballot) public {\n        require(playersRegistered.length == roomSize, \"Can't start voting, not everybody is signed up\");\n        require(player[msg.sender].username != 0, \"You can't vote if you're not participating.\");\n        require(player[msg.sender].hasVoted == false, \"You can't vote again.\");\n\n        require(\n            ballot.length == potiumSize,\n            \"The amount of players in ballot has to match the potium size.\"\n        );\n\n        player[msg.sender].hasVoted = true;\n        playersVoted.push(msg.sender);\n\n        bytes32 voted = keccak256(abi.encodePacked(ballot));\n\n        // Give players opertunity to vote correctly and get their deposits back.\n        if(distributionHasEnded) {\n            require(voted == winningBallot, \"Vote has to match the top candidate\");\n            msg.sender.transfer(getPercentage(buyIn, 5)); \n        }\n        else {\n            candidates[voted].voteCount += 1;\n            candidates[voted].voters.push(msg.sender);\n            candidates[voted].ballot = ballot;\n\n            if ( candidates[voted].voteCount > candidates[winningBallot].voteCount ) {\n                winningBallot = voted;\n            }\n\n            setMajorityVoted(roomSize, playersVoted.length);\n\n            timer = now;\n\n            if(majorityVoted) {\n                emit DebugMajorityHasVoted(candidates[winningBallot].ballot);\n                distributePrizes(candidates[winningBallot].ballot);\n            }\n        }\n    }\n\n    function killswitch() public {\n        require(player[msg.sender].username != 0, \"Player has to be registered to kill contract\");\n        if(playersRegistered.length == roomSize) {\n            require(!majorityVoted, \"Can not kill contract when majority has voted\");\n            require(now > timer+3600, \"An hour must have passed since last vote\");\n            require(timer != uint(0), \"Can not kill a contract with everyone registered and no votes\");\n        }\n        for(uint i = 0; i < playersRegistered.length; i++) {\n            address(uint(playersRegistered[i])).transfer(buyIn);\n        }\n    }\n    \n    function getPercentage(uint number, uint percent) public pure returns (uint) {\n        return (number * percent) / 100;\n    }\n \n    function getContractBalance() public view returns (uint) {\n        return address(this).balance;\n    }\n\n    function getPrizeCalculation(uint place, uint _potiumSize, uint pool) public pure returns (uint) {\n        uint prizeMath;\n\n        for (uint exp = 0; exp < _potiumSize; exp++) {\n            prizeMath += 2**exp;\n        }\n        // x << y == x * 2**y\n        return (pool << _potiumSize - place)/prizeMath;\n    }\n\n    function setMajorityVoted(uint registeredCount, uint votedCount) private {\n        majorityVoted = votedCount >= getPercentage(registeredCount, 50) + 1;\n    }\n\n    /* 20% of all players get rewards */\n    function setPotiumSize(uint _roomSize) private returns (uint) {\n        if(_roomSize % 5 == 0) {\n            potiumSize = (_roomSize / 5);\n        }\n        else {\n            potiumSize = (_roomSize / 5) + 1;\n        }\n    }\n\n    function distributePrizes(address[] memory winners) private {\n\n        refundDeposits();\n\n        uint slot;\n        uint prize;\n        address payable playerAccount;\n        for(uint place = potiumSize; place > 0; place--) {\n            slot = place - 1;\n            playerAccount = address(uint(winners[slot]));\n\n            prize = getPrizeCalculation(place, potiumSize, getPercentage(buyIn*roomSize, 95));\n\n            emit DebugDistribution(place, prize, getContractBalance());\n             distributionHasEnded = true;\n            playerAccount.transfer(prize);\n        }\n        emit DebugDistribution2(getContractBalance());\n    }\n\n    function refundDeposits() private {\n        uint depositHandout = getPercentage(buyIn, 5);\n\n        emit DebugRefundDeposits(depositHandout, getContractBalance());\n\n        for (uint i = 0; i < candidates[winningBallot].voters.length; i++ ) {\n            address(uint(candidates[winningBallot].voters[i])).transfer(depositHandout);\n        }\n    }\n}",
  "sourcePath": "/Users/einaralex/Development/Projects/Homeless-Poker/contracts/HomelessPoker.sol",
  "compiler": {
    "name": "solc",
    "version": "0.5.6+commit.b259423e.Emscripten.clang"
  },
  "schemaVersion": "3.0.2",
  "updatedAt": "2019-04-18T21:19:30.759Z",
  "devdoc": {
    "methods": {}
  },
  "userdoc": {
    "methods": {}
  }
}