{
  "contractName": "HomelessPoker",
  "abi": [
    {
      "constant": true,
      "inputs": [],
      "name": "buyIn",
      "outputs": [
        {
          "name": "",
          "type": "uint256"
        }
      ],
      "payable": false,
      "stateMutability": "view",
      "type": "function"
    },
    {
      "constant": true,
      "inputs": [
        {
          "name": "",
          "type": "uint256"
        }
      ],
      "name": "playersRegistered",
      "outputs": [
        {
          "name": "",
          "type": "address"
        }
      ],
      "payable": false,
      "stateMutability": "view",
      "type": "function"
    },
    {
      "constant": true,
      "inputs": [],
      "name": "prizePool",
      "outputs": [
        {
          "name": "",
          "type": "uint256"
        }
      ],
      "payable": false,
      "stateMutability": "view",
      "type": "function"
    },
    {
      "constant": true,
      "inputs": [],
      "name": "pledge",
      "outputs": [
        {
          "name": "",
          "type": "uint256"
        }
      ],
      "payable": false,
      "stateMutability": "view",
      "type": "function"
    },
    {
      "constant": true,
      "inputs": [],
      "name": "votingHasStarted",
      "outputs": [
        {
          "name": "",
          "type": "bool"
        }
      ],
      "payable": false,
      "stateMutability": "view",
      "type": "function"
    },
    {
      "constant": true,
      "inputs": [],
      "name": "pledgePool",
      "outputs": [
        {
          "name": "",
          "type": "uint256"
        }
      ],
      "payable": false,
      "stateMutability": "view",
      "type": "function"
    },
    {
      "anonymous": false,
      "inputs": [
        {
          "indexed": false,
          "name": "sender",
          "type": "address"
        },
        {
          "indexed": false,
          "name": "amount",
          "type": "uint256"
        },
        {
          "indexed": false,
          "name": "balance",
          "type": "uint256"
        }
      ],
      "name": "LogDeposit",
      "type": "event"
    },
    {
      "anonymous": false,
      "inputs": [
        {
          "indexed": false,
          "name": "deposit",
          "type": "uint256"
        },
        {
          "indexed": false,
          "name": "pledgePool",
          "type": "uint256"
        },
        {
          "indexed": false,
          "name": "contractBalance",
          "type": "uint256"
        }
      ],
      "name": "LogRefund",
      "type": "event"
    },
    {
      "anonymous": false,
      "inputs": [
        {
          "indexed": false,
          "name": "buyIn",
          "type": "uint256"
        },
        {
          "indexed": false,
          "name": "deposit",
          "type": "uint256"
        }
      ],
      "name": "LogDeposit2",
      "type": "event"
    },
    {
      "anonymous": false,
      "inputs": [
        {
          "indexed": false,
          "name": "prize",
          "type": "uint256"
        },
        {
          "indexed": false,
          "name": "prizePool",
          "type": "uint256"
        }
      ],
      "name": "LogHandout",
      "type": "event"
    },
    {
      "anonymous": false,
      "inputs": [
        {
          "indexed": false,
          "name": "prizePool",
          "type": "uint256"
        },
        {
          "indexed": false,
          "name": "hasEverybodyVoted",
          "type": "bool"
        }
      ],
      "name": "LogVoting",
      "type": "event"
    },
    {
      "anonymous": false,
      "inputs": [
        {
          "indexed": false,
          "name": "prize",
          "type": "uint256"
        }
      ],
      "name": "LogPrize",
      "type": "event"
    },
    {
      "anonymous": false,
      "inputs": [
        {
          "indexed": false,
          "name": "prizePool",
          "type": "uint256"
        },
        {
          "indexed": false,
          "name": "i",
          "type": "uint256"
        },
        {
          "indexed": false,
          "name": "prizeMath",
          "type": "uint256"
        }
      ],
      "name": "LogCalc",
      "type": "event"
    },
    {
      "anonymous": false,
      "inputs": [
        {
          "indexed": false,
          "name": "sender",
          "type": "address"
        },
        {
          "indexed": false,
          "name": "accountBalance",
          "type": "uint256"
        }
      ],
      "name": "LogSelfDestruct",
      "type": "event"
    },
    {
      "constant": false,
      "inputs": [],
      "name": "deposit",
      "outputs": [],
      "payable": true,
      "stateMutability": "payable",
      "type": "function"
    },
    {
      "constant": true,
      "inputs": [],
      "name": "getPlayerCount",
      "outputs": [
        {
          "name": "",
          "type": "int256"
        }
      ],
      "payable": false,
      "stateMutability": "view",
      "type": "function"
    },
    {
      "constant": true,
      "inputs": [],
      "name": "getPlayersVotedCount",
      "outputs": [
        {
          "name": "",
          "type": "int256"
        }
      ],
      "payable": false,
      "stateMutability": "view",
      "type": "function"
    },
    {
      "constant": false,
      "inputs": [
        {
          "name": "playerBallot",
          "type": "address[]"
        }
      ],
      "name": "vote",
      "outputs": [],
      "payable": true,
      "stateMutability": "payable",
      "type": "function"
    },
    {
      "constant": true,
      "inputs": [],
      "name": "votingEnded",
      "outputs": [
        {
          "name": "",
          "type": "bool"
        }
      ],
      "payable": false,
      "stateMutability": "view",
      "type": "function"
    },
    {
      "constant": true,
      "inputs": [
        {
          "name": "number",
          "type": "uint256"
        },
        {
          "name": "percent",
          "type": "uint256"
        }
      ],
      "name": "getPercentage",
      "outputs": [
        {
          "name": "",
          "type": "uint256"
        }
      ],
      "payable": false,
      "stateMutability": "pure",
      "type": "function"
    },
    {
      "constant": true,
      "inputs": [
        {
          "name": "ballotOne",
          "type": "address[]"
        },
        {
          "name": "ballotTwo",
          "type": "address[]"
        }
      ],
      "name": "isEqual",
      "outputs": [
        {
          "name": "",
          "type": "bool"
        }
      ],
      "payable": false,
      "stateMutability": "pure",
      "type": "function"
    },
    {
      "constant": true,
      "inputs": [],
      "name": "getContractBalance",
      "outputs": [
        {
          "name": "",
          "type": "uint256"
        }
      ],
      "payable": false,
      "stateMutability": "view",
      "type": "function"
    },
    {
      "constant": true,
      "inputs": [
        {
          "name": "place",
          "type": "uint256"
        },
        {
          "name": "potiumSize",
          "type": "uint256"
        },
        {
          "name": "pool",
          "type": "uint256"
        }
      ],
      "name": "getPrizeCalculation",
      "outputs": [
        {
          "name": "",
          "type": "uint256"
        }
      ],
      "payable": false,
      "stateMutability": "pure",
      "type": "function"
    },
    {
      "constant": true,
      "inputs": [],
      "name": "getPotiumSize",
      "outputs": [
        {
          "name": "",
          "type": "uint256"
        }
      ],
      "payable": false,
      "stateMutability": "view",
      "type": "function"
    }
  ],
  "bytecode": "0x608060405234801561001057600080fd5b506117fc806100206000396000f3fe60806040526004361061010f576000357c01000000000000000000000000000000000000000000000000000000009004806388ffe867116100a7578063d0e30db011610076578063d0e30db0146104ee578063de909560146104f8578063ed08132914610523578063f74f3655146105db5761010f565b806388ffe8671461043a5780638faf9312146104655780639d5a052914610494578063c2e52206146104c35761010f565b80635efdeb57116100e35780635efdeb57146103065780636c0481b5146103815780636f9fb98a146103e4578063719ce73e1461040f5761010f565b8062775c1a1461011457806308d872ed1461028557806320899ab3146102b057806353aab434146102db575b600080fd5b34801561012057600080fd5b5061026b6004803603604081101561013757600080fd5b810190808035906020019064010000000081111561015457600080fd5b82018360208201111561016657600080fd5b8035906020019184602083028401116401000000008311171561018857600080fd5b919080806020026020016040519081016040528093929190818152602001838360200280828437600081840152601f19601f820116905080830192505050505050509192919290803590602001906401000000008111156101e857600080fd5b8201836020820111156101fa57600080fd5b8035906020019184602083028401116401000000008311171561021c57600080fd5b919080806020026020016040519081016040528093929190818152602001838360200280828437600081840152601f19601f820116905080830192505050505050509192919290505050610634565b604051808215151515815260200191505060405180910390f35b34801561029157600080fd5b5061029a6106e7565b6040518082815260200191505060405180910390f35b3480156102bc57600080fd5b506102c561076f565b6040518082815260200191505060405180910390f35b3480156102e757600080fd5b506102f061077c565b6040518082815260200191505060405180910390f35b34801561031257600080fd5b5061033f6004803603602081101561032957600080fd5b8101908080359060200190929190505050610782565b604051808273ffffffffffffffffffffffffffffffffffffffff1673ffffffffffffffffffffffffffffffffffffffff16815260200191505060405180910390f35b34801561038d57600080fd5b506103ce600480360360608110156103a457600080fd5b810190808035906020019092919080359060200190929190803590602001909291905050506107c0565b6040518082815260200191505060405180910390f35b3480156103f057600080fd5b506103f9610822565b6040518082815260200191505060405180910390f35b34801561041b57600080fd5b50610424610841565b6040518082815260200191505060405180910390f35b34801561044657600080fd5b5061044f610847565b6040518082815260200191505060405180910390f35b34801561047157600080fd5b5061047a61084d565b604051808215151515815260200191505060405180910390f35b3480156104a057600080fd5b506104a9610860565b604051808215151515815260200191505060405180910390f35b3480156104cf57600080fd5b506104d861087d565b6040518082815260200191505060405180910390f35b6104f661088a565b005b34801561050457600080fd5b5061050d610b74565b6040518082815260200191505060405180910390f35b6105d96004803603602081101561053957600080fd5b810190808035906020019064010000000081111561055657600080fd5b82018360208201111561056857600080fd5b8035906020019184602083028401116401000000008311171561058a57600080fd5b919080806020026020016040519081016040528093929190818152602001838360200280828437600081840152601f19601f820116905080830192505050505050509192919290505050610b7a565b005b3480156105e757600080fd5b5061061e600480360360408110156105fe57600080fd5b810190808035906020019092919080359060200190929190505050610f3b565b6040518082815260200191505060405180910390f35b60008160405160200180828051906020019060200280838360005b8381101561066a57808201518184015260208101905061064f565b50505050905001915050604051602081830303815290604052805190602001208360405160200180828051906020019060200280838360005b838110156106be5780820151818401526020810190506106a3565b505050509050019150506040516020818303038152906040528051906020012014905092915050565b60006005808054905010156106ff576001905061076c565b600061071960058080549050610f6b90919063ffffffff16565b141561073e5761073760058080549050610f9090919063ffffffff16565b905061076c565b610769600161075b60058080549050610f9090919063ffffffff16565b610fba90919063ffffffff16565b90505b90565b6000600680549050905090565b60005481565b60058181548110151561079157fe5b906000526020600020016000915054906101000a900473ffffffffffffffffffffffffffffffffffffffff1681565b60008060008090505b848110156107e6578060020a8201915080806001019150506107c9565b506000610814826108008888610fdb90919063ffffffff16565b869060020a02610f9090919063ffffffff16565b905080925050509392505050565b60003073ffffffffffffffffffffffffffffffffffffffff1631905090565b60025481565b60015481565b600460009054906101000a900460ff1681565b600061086a610ffd565b610875576000610878565b60015b905090565b6000600580549050905090565b60001515600460009054906101000a900460ff1615151415156108f8576040517f08c379a00000000000000000000000000000000000000000000000000000000081526004018080602001828103825260268152602001806117656026913960400191505060405180910390fd5b600760003373ffffffffffffffffffffffffffffffffffffffff1673ffffffffffffffffffffffffffffffffffffffff16815260200190815260200160002060009054906101000a900460ff161515156109ba576040517f08c379a000000000000000000000000000000000000000000000000000000000815260040180806020018281038252601f8152602001807f4120706c617965722063616e206f6e6c79206465706f736974206f6e63652e0081525060200191505060405180910390fd5b600060058054905014156109d6576109d134611011565b610a37565b6001546000540134141515610a36576040517f08c379a00000000000000000000000000000000000000000000000000000000081526004018080602001828103825260348152602001806117316034913960400191505060405180910390fd5b5b610a4e600154600354610fba90919063ffffffff16565b600381905550610a6b600054600254610fba90919063ffffffff16565b6002819055507f50f573b23d017a63626fae53c33bff538b73ae9ad334ab8580678ee42f19384d600054600154604051808381526020018281526020019250505060405180910390a160053390806001815401808255809150509060018203906000526020600020016000909192909190916101000a81548173ffffffffffffffffffffffffffffffffffffffff021916908373ffffffffffffffffffffffffffffffffffffffff160217905550506001600760003373ffffffffffffffffffffffffffffffffffffffff1673ffffffffffffffffffffffffffffffffffffffff16815260200190815260200160002060006101000a81548160ff021916908315150217905550565b60035481565b6001600460006101000a81548160ff0219169083151502179055507f2722e9ce1091f21f8c65dd1e09cd9f5c2538fde064378931cb727be07c329026600254610bc1610ffd565b60405180838152602001821515151581526020019250505060405180910390a160011515600760003373ffffffffffffffffffffffffffffffffffffffff1673ffffffffffffffffffffffffffffffffffffffff16815260200190815260200160002060009054906101000a900460ff161515141515610ca9576040517f08c379a000000000000000000000000000000000000000000000000000000000815260040180806020018281038252601e8152602001807f566f7465722073686f756c642062652070617274696369706174696e672e000081525060200191505060405180910390fd5b6001600860003373ffffffffffffffffffffffffffffffffffffffff1673ffffffffffffffffffffffffffffffffffffffff16815260200190815260200160002080549050101515610d63576040517f08c379a000000000000000000000000000000000000000000000000000000000815260040180806020018281038252601b8152602001807f4120706c617965722063616e206f6e6c7920766f7465206f6e6365000000000081525060200191505060405180910390fd5b610d6b6106e7565b8151141515610dc5576040517f08c379a000000000000000000000000000000000000000000000000000000000815260040180806020018281038252604681526020018061178b6046913960600191505060405180910390fd5b80600860003373ffffffffffffffffffffffffffffffffffffffff1673ffffffffffffffffffffffffffffffffffffffff1681526020019081526020016000209080519060200190610e18929190611663565b5060063390806001815401808255809150509060018203906000526020600020016000909192909190916101000a81548173ffffffffffffffffffffffffffffffffffffffff021916908373ffffffffffffffffffffffffffffffffffffffff16021790555050610e8833611044565b610e90610860565b15610f3857610e9d6110ff565b7f215be423a2afeeee1f3f4d3cc730708809a96e17103a81f16896c0722bd20635333073ffffffffffffffffffffffffffffffffffffffff1631604051808373ffffffffffffffffffffffffffffffffffffffff1673ffffffffffffffffffffffffffffffffffffffff1681526020018281526020019250505060405180910390a13373ffffffffffffffffffffffffffffffffffffffff16ff5b50565b6000610f636064610f55848661139190919063ffffffff16565b610f9090919063ffffffff16565b905092915050565b6000808214151515610f7c57600080fd5b8183811515610f8757fe5b06905092915050565b60008082111515610fa057600080fd5b60008284811515610fad57fe5b0490508091505092915050565b6000808284019050838110151515610fd157600080fd5b8091505092915050565b6000828211151515610fec57600080fd5b600082840390508091505092915050565b600060068054905060058054905014905090565b600061101e826019610f3b565b90508060018190555061103a8183610fdb90919063ffffffff16565b6000819055505050565b61105b600154600354610fdb90919063ffffffff16565b6003819055508073ffffffffffffffffffffffffffffffffffffffff166108fc6001549081150290604051600060405180830381858888f193505050501580156110a9573d6000803e3d6000fd5b507f1ee75f95deb9227f1820c80490bf2d709a3ede43b874b8da80317534e91819776001546003546110d9610822565b60405180848152602001838152602001828152602001935050505060405180910390a150565b60606111096113cf565b90506005805490506111196106e7565b10151561118e576040517f08c379a00000000000000000000000000000000000000000000000000000000081526004018080602001828103825260048152602001807f544f444f0000000000000000000000000000000000000000000000000000000081525060200191505060405180910390fd5b60006111986106e7565b90505b600081111561138d5760006111ba600183610fdb90919063ffffffff16565b9050600083828151811015156111cc57fe5b906020019060200201519050600760008273ffffffffffffffffffffffffffffffffffffffff1673ffffffffffffffffffffffffffffffffffffffff16815260200190815260200160002060009054906101000a900460ff161515611299576040517f08c379a000000000000000000000000000000000000000000000000000000000815260040180806020018281038252601c8152602001807f506c617965722068617320746f20626520726567697374657265642e0000000081525060200191505060405180910390fd5b60006112af846112a76106e7565b6002546107c0565b905060018414156112d9576112d66003546112c8610822565b610fba90919063ffffffff16565b90505b7fbbc656893463c2eae16d5d39833a6800dcb31c98900357ecb9e6405a56080d6581600254604051808381526020018281526020019250505060405180910390a161132f81600254610fdb90919063ffffffff16565b6002819055508173ffffffffffffffffffffffffffffffffffffffff166108fc829081150290604051600060405180830381858888f1935050505015801561137b573d6000803e3d6000fd5b5050505080806001900391505061119b565b5050565b6000808314156113a457600090506113c9565b600082840290508284828115156113b757fe5b041415156113c457600080fd5b809150505b92915050565b60606000809050606080606060008090505b6006805490508160ff1610156116585760008090506008600060068460ff1681548110151561140c57fe5b9060005260206000200160009054906101000a900473ffffffffffffffffffffffffffffffffffffffff1673ffffffffffffffffffffffffffffffffffffffff1673ffffffffffffffffffffffffffffffffffffffff1681526020019081526020016000208054806020026020016040519081016040528092919081815260200182805480156114f157602002820191906000526020600020905b8160009054906101000a900473ffffffffffffffffffffffffffffffffffffffff1673ffffffffffffffffffffffffffffffffffffffff16815260200190600101908083116114a7575b505050505093506000600190505b6006805490508160ff161015611634576008600060068360ff1681548110151561152557fe5b9060005260206000200160009054906101000a900473ffffffffffffffffffffffffffffffffffffffff1673ffffffffffffffffffffffffffffffffffffffff1673ffffffffffffffffffffffffffffffffffffffff16815260200190815260200160002080548060200260200160405190810160405280929190818152602001828054801561160a57602002820191906000526020600020905b8160009054906101000a900473ffffffffffffffffffffffffffffffffffffffff1673ffffffffffffffffffffffffffffffffffffffff16815260200190600101908083116115c0575b5050505050935061161b8585610634565b15611627576001820191505b80806001019150506114ff565b508560ff168160ff16111561164a578095508394505b5080806001019150506113e1565b508294505050505090565b8280548282559060005260206000209081019282156116dc579160200282015b828111156116db5782518260006101000a81548173ffffffffffffffffffffffffffffffffffffffff021916908373ffffffffffffffffffffffffffffffffffffffff16021790555091602001919060010190611683565b5b5090506116e991906116ed565b5090565b61172d91905b8082111561172957600081816101000a81549073ffffffffffffffffffffffffffffffffffffffff0219169055506001016116f3565b5090565b9056fe56616c75652073656e742068617320746f206d6174636820746865206275792d696e202b206465706f73697420616d6f756e742e566f74696e6720737461727465642c20726567697374726174696f6e2068617320656e64656454686520616d6f756e74206f662061646472657373657320696e20706c617965722062616c6c6f742068617320746f206d617463682074686520706f7469756d2073697a652ea165627a7a723058200dae61f260bf3e7b7b8bbc2c860df323657e9a7b8bd9210d2fa552ff8732e3970029",
  "source": "pragma solidity ^0.5.4;\n\n\nimport \"../node_modules/openzeppelin-solidity/contracts/math/SafeMath.sol\";\n\n\ncontract HomelessPoker {\n    using SafeMath for uint;\n    uint public buyIn;\n    uint public pledge;\n    uint public prizePool;\n    uint public pledgePool;\n    bool public votingHasStarted;\n    address[] public playersRegistered;\n    address payable[] private playersVoted;\n\n    mapping(address => bool) private isRegistered; // TODO: move this to player struct\n    mapping(address => address payable[]) private ballot;\n    mapping(address => uint) private count;\n\n    event LogDeposit (address sender, uint amount, uint balance);\n    event LogRefund (uint deposit, uint pledgePool, uint contractBalance);\n    event LogDeposit2 (uint buyIn, uint deposit);\n    event LogHandout (uint prize, uint prizePool);\n    event LogVoting (uint prizePool, bool hasEverybodyVoted);\n    event LogPrize (uint prize);\n    event LogCalc (uint prizePool, uint i, uint prizeMath);\n    event LogSelfDestruct (address sender, uint accountBalance);\n\n    function deposit() public payable {\n        require(votingHasStarted == false, \"Voting started, registration has ended\");\n        require(!isRegistered[msg.sender], \"A player can only deposit once.\");\n\n        /* First depositee sets the buy-in amount */\n        if (playersRegistered.length == 0) {\n            setBuyInAndDeposit(msg.value);\n        }\n        else {\n            require(msg.value == (buyIn + pledge), \"Value sent has to match the buy-in + deposit amount.\");\n        }\n\n        pledgePool = pledgePool.add(pledge);\n        prizePool = prizePool.add(buyIn);\n        emit LogDeposit2(buyIn, pledge);\n        playersRegistered.push(msg.sender);\n        isRegistered[msg.sender] = true;\n\n        //emit LogDeposit(msg.sender, msg.value, msg.sender.balance);\n    }\n    function getPlayerCount() public view returns (int) {\n        return int(playersRegistered.length);\n    }\n\n    function getPlayersVotedCount() public view returns (int) {\n        return int(playersVoted.length);\n    }\n\n    // First iteration will trust that every player votes correctly:\n    // player sends in a listOfWinners array arranged from first to last place\n    function vote(address payable[] memory playerBallot) public payable {\n        votingHasStarted = true;\n        emit LogVoting(prizePool, allPlayersHaveVoted());\n        require(isRegistered[msg.sender] == true, \"Voter should be participating.\");\n        require(ballot[msg.sender].length < 1, \"A player can only vote once\");\n        require(\n            playerBallot.length == getPotiumSize(),\n            \"The amount of addresses in player ballot has to match the potium size.\"\n        );\n\n        // mapping a players ballot (kjörseðill) to his address\n        ballot[msg.sender] = playerBallot;\n    \n        // maintain an iterable record for who has voted\n        playersVoted.push(msg.sender);\n\n        refundDeposit(msg.sender);\n\n        if (votingEnded()) {\n            handOutReward();\n            // Is this ideal?\n            // The last user to vote has to pay gas for getWinningBallot which is gas costly\n            // The memory arrays should free up some gas on selfdestruct to pay the user back.\n            emit LogSelfDestruct(msg.sender, address(this).balance);\n            selfdestruct(msg.sender);\n        }\n    }\n\n    function votingEnded() public view returns (bool) {\n        return allPlayersHaveVoted() ? true : false;\n    }\n\n    function getPercentage(uint number, uint percent) public pure returns (uint) {\n        return number.mul(percent).div(100);\n    }\n\n    // when majority has voted, then pay the deposit back\n    // function majorityHasVoted() public view returns (bool) {\n    //     // uint() floors integers, add one to get ceiling.\n    //     uint majority = getPercentage(playersRegistered.length, 50).add(1);\n    //     return playersVoted.length >= majority;\n    // }\n    //\n    function isEqual(address payable[] memory ballotOne, address payable[] memory ballotTwo) \n    public pure returns (bool) {\n        return keccak256(abi.encodePacked(ballotOne)) == keccak256(abi.encodePacked(ballotTwo));\n    }\n\n    function getContractBalance() public view returns (uint) {\n        return address(this).balance;\n    }\n\n    function getPrizeCalculation(uint place, uint potiumSize, uint pool) public pure returns (uint) {\n        uint prizeMath;\n\n        for (uint exp = 0; exp < potiumSize; exp++) {\n            prizeMath += 2**exp;\n        }\n        // x << y == x * 2**y\n        uint prize = (pool << potiumSize.sub(place)).div(prizeMath);\n\n        return prize;\n    }\n\n    /* 20% of all players get rewards */\n    function getPotiumSize() public view returns (uint) {\n        if (playersRegistered.length < 5) {\n            return 1;\n        }\n        else if (playersRegistered.length.mod(5) == 0) {\n            return uint(playersRegistered.length.div(5));\n        }\n        return uint(playersRegistered.length.div(5)).add(1);\n    }\n\n    // this function takes tons of gas, the last player to vote\n    // uses almost 300.000 additional gas\n    function getWinningBallot() private view returns (address payable[] memory) {\n\n        uint8 max = 0;\n        address payable[] memory winningBallot;\n        address payable[] memory thisBallot;\n        address payable[] memory restOfBallots;\n\n        for(uint8 i = 0; i < playersVoted.length; i++ ) {\n            uint8 counter = 0;\n            thisBallot = ballot[playersVoted[i]];\n\n            for(uint8 j = 1; j < playersVoted.length; j++) {\n                restOfBallots = ballot[playersVoted[j]];\n                if (isEqual(thisBallot, restOfBallots)) {\n                    counter += 1;\n                }\n            }\n            if(counter > max) {\n                max = counter;\n                winningBallot = thisBallot;\n            }\n        }\n        return winningBallot;\n    }\n\n    function handOutReward() private {\n        address payable[] memory winningBallot = getWinningBallot();\n        require(getPotiumSize() < playersRegistered.length, \"TODO\");\n        for(uint place = getPotiumSize(); place > 0; place--) {\n            uint slot = place.sub(1);\n            address payable playerAccount = winningBallot[slot];\n\n            require(isRegistered[playerAccount], \"Player has to be registered.\");\n            uint prize = getPrizeCalculation(place, getPotiumSize(), prizePool);\n\n            // The top player gets the \"dust\" + pledgePool if someone didn't vote\n            if (place == 1) {\n                prize = getContractBalance().add(pledgePool);\n            }\n\n            emit LogHandout(prize, prizePool);\n            prizePool = prizePool.sub(prize);\n            playerAccount.transfer(prize);\n        }\n    }\n\n    function refundDeposit(address payable sender) private {\n        pledgePool = pledgePool.sub(pledge);\n        sender.transfer(pledge);\n        emit LogRefund(pledge, pledgePool, getContractBalance());\n    }\n\n    function setBuyInAndDeposit(uint amount) private {\n        uint depositAmount = getPercentage(amount, 25);\n\n        pledge = depositAmount;\n        buyIn = amount.sub(depositAmount);\n    }\n\n    function transferDepositBack() private {\n        for(uint i = 0; i < playersVoted.length; i++ ) {\n            pledgePool = pledgePool.sub(pledge);\n            playersVoted[i].transfer(pledge);\n        }\n    }\n\n    function allPlayersHaveVoted() private view returns (bool) {\n        return (playersRegistered.length == playersVoted.length);\n    }\n\n}\n\n",
  "sourcePath": "/Users/einaralex/Development/Projects/Homeless-Poker/contracts/HomelessPoker.sol",
  "compiler": {
    "name": "solc",
    "version": "0.5.4+commit.9549d8ff.Emscripten.clang"
  },
  "schemaVersion": "3.0.2",
  "updatedAt": "2019-03-21T21:45:32.135Z",
  "devdoc": {
    "methods": {}
  },
  "userdoc": {
    "methods": {}
  }
}